:100000000C9404020C944B020C944B020C94A20925
:100010000C944B020C944B020C944B020C944B022C
:100020000C944B020C944B020C94101E0C94E21E88
:100030000C941C170C944B020C944B020C944B0226
:100040000C944B020C944B020C944B020C944B02FC
:100050000C944B020C9484170C944B020C944B029E
:100060000C944B020C944B020C944B020C944B02DC
:100070000C944B020C944B020C944B020C944B02CC
:100080000C944B020C944B020C944B020C944B02BC
:100090000C944B020C944B020C944B020C944B02AC
:1000A0000C944B020C944B020C944B021E05200541
:1000B0002B0522052405260528052A052D052F05D3
:1000C00031053C0533053505370539053B053E054A
:1000D000550D550D870D870D340FD40D340F340F8A
:1000E000160EB30EC40EC40E240F340F340F2D0F92
:1000F000AE0FAE0FC00FC00FB70FC00FC00FC00FB5
:10010000AE0FAE0FBC0FC00FC00FBC0F4F1F761F3E
:100110006820761F6820C21FE51F68203B204A2008
:10012000290014001A0008001500170000002B61B8
:1001300004001600070009000A000000E1001D008D
:100140001B00060019000500000000000000000070
:10015000916801512C0000002A00130012000C00CD
:1001600018001C000000340033000F000E000D00CA
:100170000B000000E50038003700360010001100C9
:100180000000000000000000906402512800000000
:1001900029001E001F0020002100220000002B610A
:1001A0003A003B003C003D003E000000E1004400FE
:1001B0004500680069006A000000000000000000BF
:1001C000916801512C0000002A002700260025001C
:1001D00024002300000000004300420041004000D2
:1001E0003F00000000006F006E006D006C006B00AF
:1001F0000000000000000000906402512800000090
:1002000029001E021F0220022102220200002B618F
:10021000000000000000000000000000E1000000FD
:1002200000000000000000000000000000000000CE
:10023000916801512C0000002A00270226022502A5
:100240002402230200003500310230022F022E006A
:100250002D0000003502310030002F002E022D024B
:10026000000000000000000090640251280000001F
:10027000005C000000000000000000000000C25C04
:10028000C55CC75CC95C000000000000C35CC65CC4
:10029000C85CCA5C00000000000000000000000014
:1002A000916801512C0000000000000000000000D7
:1002B000000000000000000000000000000000003E
:1002C000000000000000000000000000000000002E
:1002D00000000000000000009064025128000000AF
:1002E0000403300000002E0343006F0072006E0014
:1002F000650020004B006500790062006F0061001E
:100300007200640020002800630072006B0062002D
:10031000640029000000100366006F006F00730086
:10032000740061006E0000000403090409023B0030
:10033000020100A0FA0904000001030101000921E3
:10034000110100012240000705810308000A090489
:1003500001000103000000092111010001224F00EA
:100360000705820320000A1201100100000008EDB9
:10037000FE603001000102030105010902A10185AF
:10038000020901A10005091901290515002501959A
:100390000575018102950175038101050109300987
:1003A000311581257F95027508810609381581254B
:1003B0007F950175088106050C0A38021581257F95
:1003C000950175088106C0C005010906A101050750
:1003D00019E029E7150025019508750181029501AD
:1003E0007508810105081901290595057501910216
:1003F0009501750391010507190029FF150026FFD6
:1004000000950675088100C011241FBECFEFDAE009
:10041000DEBFCDBF04B603FE27C0809110029091CD
:100420001102A0911202B09113028730904BA740A5
:10043000B04BD1F4109210021092110210921202DD
:100440001092130214BE84B7877F84BF0FB6F8944E
:10045000A895809160008861809360001092600090
:100460000FBEE0E0F8E3099511E0A0E0B1E0E6E3BB
:10047000F2E402C005900D92AE33B107D9F722E045
:10048000AEE3B1E001C01D92A031B207E1F70E94D6
:10049000341B0C9419210C940000A6E3B1E041E058
:1004A00050E08D91E82FE295EF70F0E021A18F7080
:1004B000BA0102C0660F771F8A95E2F7CB01962F2B
:1004C0009095922391A392A1892B82A371E0AA33E4
:1004D000B70739F7089508950C946B0208950C94AA
:1004E0006E02559A209A5D9A289A08955D9808950B
:1004F0005D9A089528980895289A08958091E401B6
:10050000836088608093E4010E944D02AFE2B1E015
:1005100041E050E08D91E82FE295EF70F0E021A1ED
:100520008F70BA0102C0660F771F8A95E2F7CB0180
:10053000962F9095922391A392A1892B82A371E08B
:10054000A633B70739F70E947102AEE3B1E0E6E4E3
:10055000F1E088E08E0F11921D928E13FCCF0E9465
:10056000110480934E010C94B8049F92AF92BF92F5
:10057000CF92DF92EF92FF920F931F93CF93DF936F
:1005800080910101811103C004E010E002C000E08D
:1005900010E0A801425C5E4F7A01EA0186E3C82EB2
:1005A00081E0D82EAA24A394B12C25E0922E8AE3D0
:1005B000C81681E0D80609F448C0F60181916F01A0
:1005C000E82FE295EF70F0E021A18F70A50102C045
:1005D000440F551F8A95E2F7CA01922F982B91A3D9
:1005E00092A18095892382A350EA5A95F1F7EFE210
:1005F000F1E020E040E050E03191A32FA295AF70F0
:10060000B0E090968C9190E03F7002C095958795F0
:100610003A95E2F780FD07C0C501042E01C0880F9E
:100620000A94EAF702C080E090E0282B4F5F5F4F0A
:100630004730510509F78881821719F02883909275
:1006400000010E944D022196B2CF809100018823C3
:10065000E1F0815080930001882339F0EFE9FFE059
:100660003197F1F700C0000010C080E090E0FC017D
:10067000E00FF11FEA5BFE4FD701A80FB91F2C91C5
:10068000208301968430910591F781E0DF91CF912D
:100690001F910F91FF90EF90DF90CF90BF90AF90A0
:1006A0009F900895CF93DF9320910101211103C002
:1006B000C0E0D0E002C0C4E0D0E00E943B0400975C
:1006C00029F00297B1F40E947A0213C00E947C02C2
:1006D000CA5BDE4F8091590190915A01A0915B0154
:1006E000B0915C0188839983AA83BB8380E090E00A
:1006F00002C081E090E0DF91CF9108950E94B502A1
:1007000080910101811103C0E4E0F0E002C0E0E06B
:10071000F0E0EA5BFE4F20E030E080E0D901A75A2C
:10072000BE4F4C919191491381E09C932F5F3F4FB5
:100730002430310599F790915201890F809352012D
:100740000895CF93DF9380914E01882309F442C02E
:100750000E94B50280910101811103C0C4E0D0E084
:1007600002C0C0E0D0E0CA5BDE4F44E050E0BE0112
:1007700085E591E00E94CA20488159816A817B8188
:10078000409355015093560160935701709358015F
:100790000E945203892BC9F00E94760280914F017A
:1007A0008F5F80934F01863078F180910101811134
:1007B00003C0E0E0F0E002C0E4E0F0E0EA5BFE4FFE
:1007C00010821182128213821FC00E94780210923E
:1007D0004F011AC00E947E0380910101811103C064
:1007E00080E090E002C084E090E0FC01EA5BFE4F14
:1007F00040915501509156016091570170915801F7
:1008000040835183628373830E94C00481E0DF913F
:10081000CF910895E82FF0E0EA5BFE4F80810895C4
:100820000895E8EDF0E08081806180838AE18A9517
:10083000F1F700C08091D900817008950E941104E1
:10084000809301010E941104882319F00E942F0453
:1008500002C00E943504789408950C941E0463E04D
:1008600070E082E091E00C94470963E070E082E080
:1008700091E00C9450090F931F93CF93DF938C0159
:1008800090911B0180911A01981761F082E090E02D
:100890000E94320AEC01892B39F480911A0180936D
:1008A0001B0102C0C0E0D0E0012B49F4809150014F
:1008B00090915101892B19F480E090E002C081E011
:1008C00090E00E94320A892B49F480915201809372
:1008D0001A01109251011092500106C081E090E07F
:1008E0009093510180935001CE01DF91CF911F91E0
:1008F0000F9108950C947E0481E0089581E008959D
:100900001F93CF93DF9300D000D01F92CDB7DEB7F7
:1009100049835A832091730189819A81211112C0E0
:10092000662349F00E94D314182F682F89819A8179
:100930000E94781403C00E94A714182F69817A813D
:10094000812F04C00E94D31469817A810F900F9087
:100950000F900F900F90DF91CF911F910C94CA05CB
:10096000FC01408151816281738184810C948004F7
:100970000E940316811102C00E9489160C946C0219
:100980000C946F0208950C94C2040C94C30408954F
:100990000E949E0F0E94C7042FEF84E39CE0215029
:1009A00080409040E1F700C0000087E797E7909310
:1009B0000108809300080C94AA170F931F93CF93FC
:1009C000DF938C010E94B004EC01B8010E947A040C
:1009D000882309F4D5C0B801CE010E94A608882357
:1009E00009F4CEC0C531FCE5DF0708F07BC0C2309A
:1009F0008CE5D80708F452C0F8018281882309F4F5
:100A000054C00E940316811102C00E9489160E94E0
:100A1000161690E09093020280930102FE01E350CB
:100A2000FC45E231F10530F4EA5AFF4F80910102B2
:100A30000C94B02080910102816027C0826025C0A3
:100A4000846023C0806121C080621FC080641DC09B
:100A500080681BC08460886018C08E7F16C08D7F40
:100A600014C08B7F12C08F7E10C08F7D0EC08F7B15
:100A70000CC08F770AC08B7F877F07C087FB222738
:100A800020F991E0922790FB87F9809301028091F1
:100A900001020E941A160E949E0F72C0C115ECE559
:100AA000DE0751F0C130DC4579F0C801DF91CF910C
:100AB0001F910F910C947C04F8018281882309F422
:100AC0005FC00E94C8045CC0F8018281882309F4D9
:100AD00057C08091E401982F909590FB80F9809306
:100AE000E4014EC0CC3D8CE5D80739F4F801828191
:100AF000882309F445C080E00DC0CD3DECE5DE075C
:100B000060F0CD3D8CE5D80791F5F801828188230E
:100B1000B9F182E00E94D31B33C0C631DC4529F60F
:100B20000E945315282FF801828140911C01509199
:100B30001D01882379F02A7A91E009F490E09093DE
:100B40005D01911102C069E201C065E3CA010E9422
:100B5000BD160AC080915D01811102C069E201C029
:100B600065E3CA010E94BF160E949F1509C0CE3DD1
:100B7000DC4509F09ACFF801828181110E94891623
:100B800080E0DF91CF911F910F91089580E090E078
:100B90000895089597E0799FF001112498E3899FC3
:100BA000E00DF11D1124E60FF11DEE0FFF1FE05EB9
:100BB000FE4F859194910895880F991FFC01E05292
:100BC000FD4F859194910895CF93DF930E94CA05BC
:100BD0000E949907EC01811520E59207F0F5811537
:100BE00030E4930708F024C1883E910500F5803E6B
:100BF000910508F09AC1883A910570F4853A9105FB
:100C000008F09FC08130910509F48FC108F440C1FC
:100C1000049708F08AC13CC18F3B910508F49CC041
:100C2000803C910508F434C1805C9109F4C08115C1
:100C300040E2940758F4C11581E0D80708F075C167
:100C4000C03FD10508F424C1D0656FC1811520E3F0
:100C5000920708F0E4C09F70DEC0811535E5930768
:100C600008F044C0811544E5940708F0F8C0C115A8
:100C700082E5D80708F5C11521E5D20708F0DBC0E9
:100C80008C2F837021E030E002C0220F331F8A9541
:100C9000E2F73C68CE0174E0969587957A95E1F786
:100CA0008370382BCF70C695C69580E2C89FE0014F
:100CB0001124C22BD32B39C12C2F26952695CE017A
:100CC00083709927C115D34508F0BAC040E2249F2C
:100CD00090011124C1E0D0E002C0CC0FDD1F8A9545
:100CE000E2F72C2B3D2BE901DC681FC1811549E59A
:100CF0009407A0F4C11588E5D80708F0B5C0C11560
:100D000026E5D20708F0C4C08C2F0E9416088F7108
:100D1000C82FD0E0DC2FCC27D06207C181153AE57F
:100D2000930708F4A6C090568115904208F0B0C011
:100D30008D2F8F710E941608DD27D0628F71D82BFE
:100D4000F4C0853A910509F4A6C0863A910509F0E8
:100D5000A5C0C2E8D0E4E9C0883A910509F4A1C071
:100D6000893A910509F4A0C08A3A910509F49FC017
:100D70008B3A910509F49EC08C3A910509F49DC007
:100D80008B3B910509F49CC08C3B910509F49BC0F9
:100D90008D3A910509F49AC0803B910509F499C0F8
:100DA0008E3A910509F498C08F3A910509F497C0DD
:100DB000813B910509F496C0823B910509F495C0E9
:100DC000833B910509F494C0843B910509F493C0D9
:100DD000853B910509F492C0863B910509F491C0C9
:100DE000873B910509F490C0883B910509F48FC0B9
:100DF000893B910509F48EC08D3B910509F48DC0A6
:100E00008E3B910509F48CC08A3B910509F48BC097
:100E1000C0E0D4E48AC00E94DC05EC0186C09927BA
:100E2000D3FF03C0EC01D86C80C0EC01D06C7DC056
:100E3000DF70D06A7AC0DC2FCC27C16FD06A75C052
:100E400040E2249F90011124C1E0D0E002C0CC0F09
:100E5000DD1F8A95E2F7C22BD32BDA6866C0D82F44
:100E6000CC27C46FD06A61C0DC2FCC27C06FD06A9A
:100E70005CC08F700E94160894E0D695C7959A952D
:100E8000E1F7CF70D0E0DC2FCC27D069C82B4DC064
:100E9000C0E0D0E04AC0C1E8D0E447C0C3E8D0E435
:100EA00044C0C2EED4E441C0C9EED4E43EC0CAEEB0
:100EB000D4E43BC0C5EBD4E438C0C6EBD4E435C0C1
:100EC000C3EBD4E432C0C4EBD4E42FC0C7EBD4E40A
:100ED0002CC0CCECD4E429C0CDECD4E426C0C3E8CB
:100EE000D5E423C0CAE8D5E420C0C2E9D5E41DC0DA
:100EF000C4E9D5E41AC0C1E2D6E417C0C3E2D6E41F
:100F000014C0C4E2D6E411C0C5E2D6E40EC0C6E205
:100F1000D6E40BC0C7E2D6E408C0CFE6D4E405C0EF
:100F2000C0E7D4E402C0CAE2D6E4CE01DF91CF919B
:100F300008958238910549F1B0F48133910509F49F
:100F400058C048F48932910509F44EC08A3291059F
:100F500009F454C008958533910509F440C08933DC
:100F6000910599F00895833E910529F138F4803E6A
:100F7000910591F0823E9105A1F00895863E91057C
:100F8000F9F0873E910531F108952091010220FD8D
:100F90003AC021FD38C008958091010280FD35C01E
:100FA00032C08091010282FF32C08091010284FD33
:100FB00030C083EE39C08091010282FD28C0F5CF98
:100FC0008091010283FF27C08091010284FD21C02E
:100FD00087EE2AC08091010283FD1DC0F5CF80916C
:100FE000010285FD1AC01BC08091010285FD17C05A
:100FF00014C08091010286FD14C015C080910102C9
:1010000086FD11C00EC080EE0FC089E30DC082EED8
:101010000BC080E009C086EE07C089E205C085E309
:1010200003C08AE201C081E390E00895909101023B
:1010300092FF0DC0282F2871283019F4877F846013
:1010400006C0282F2471243011F48B7F886093FF11
:101050000DC0282F2871283119F4877E846106C0BD
:10106000282F2471243111F48B7E886194FD877EB2
:1010700008950F931F93CF93DF93C62FD42F022F82
:10108000FC0182818823C9F0609360010E944E17A1
:1010900090935F0180935E0180E28C0F883008F0AE
:1010A00050C0C77081E001C0880FCA95EAF7DF9190
:1010B000CF911F910F910C94150D10916001161393
:1010C00030C080915E0190915F010E945A17883C68
:1010D000910538F5C0E2CD0F1D17B9F080E2810F00
:1010E000883040F4177081E001C0880F1A95EAF744
:1010F0000E941C0DC83048F481E09D2F977001C0FC
:10110000880F9A95EAF70E94150D802F0E94020D14
:10111000C830B8F4D77081E001C0880FDA95EAF7DB
:101120000AC080E28C0F883060F4C77081E001C093
:10113000880FCA95EAF7DF91CF911F910F910C9418
:101140001C0DDF91CF911F910F9108959C01CB0150
:10115000203F4CE53407F9F078F4283DFCE53F07E3
:10116000B9F0293D4CE5340711F1273D3C4531F5F7
:1011700026E241EE61EE1EC0223FFCE53F0799F0FA
:1011800070F0233F3C45D1F427E245EE66EE12C0F5
:1011900027E245EE0EC026E241EE60EE0BC027E2EC
:1011A00045EE64EE07C026E241EE62EE03C028E29F
:1011B00041E065EE0E94390880E00895FC018281DB
:1011C000882319F010926001089581E008958EE15E
:1011D0004A9B02C08150E1F74A9BFECF08955A987E
:1011E00080E28A95F1F75A9A0895FC014AE04A95FF
:1011F000F1F730E090E080E021E0961779F040E1EF
:101200004A95F1F7880F4A9B02C08160322700C0DF
:10121000000040E14A95F1F79F5FEFCF90E19A958A
:10122000F1F729B100C0000040E14A95F1F722FB37
:10123000992790F993272081920F90830895EF9238
:10124000FF920F931F93CF93DF931F92CDB7DEB71B
:10125000F62E1982E82E8C01802F8E198F1558F4E6
:101260000E94E70868E0CE0101960E94F508F801A7
:1012700081938F01F1CF81E09981911180E00F90EE
:10128000DF91CF911F910F91FF90EF900895909370
:1012900063018093620160936101529A5A9A0895A2
:1012A00090936301809362016093610152985A9A0E
:1012B000EA9AE9E6F0E080818F7C808308956150AE
:1012C00091E001C0990F6A95EAF720E031E0992397
:1012D00061F0492F482319F05A9A232701C05A98E0
:1012E00040E24A95F1F79695F2CF222311F05A9AEF
:1012F00001C05A9880E28A95F1F75A980895EF92C2
:10130000FF920F931F93CF93DF931F92CDB7DEB75A
:10131000162F082F7C018E2D801B811758F4F701A2
:1013200081917F0189830E94EF0868E089810E9492
:101330005F09F1CF0F90DF91CF911F910F91FF9037
:10134000EF9008951F920F920FB60F9211240F93F2
:101350001F932F933F934F935F936F937F938F933D
:101360009F93AF93BF93EF93FF93CF93DF931F921E
:10137000CDB7DEB719820E94E70867E0CE0101967B
:101380000E94F508382F369536953695932F969509
:101390009570232F2570920F292F2370969596957F
:1013A0008770920F891348C08981811145C080914F
:1013B0006101831708F440C080E18A95F1F75A9AD9
:1013C000529AA2E0AA95F1F700C000916201109133
:1013D0006301B8E03B9F000D111D11245A98F801DC
:1013E0006581662321F0868197810E947F090E9492
:1013F000EF08F0E1FA95F1F75A9852985A9A80E17D
:101400008A95F1F7D80112966C911297662369F0CC
:1014100013968D919C9114970E941F09D801ED910C
:10142000FC91811105C082E004C0D801ED91FC91CE
:1014300088E080830E94E7080F90DF91CF91FF91B1
:10144000EF91BF91AF919F918F917F916F915F913C
:101450004F913F912F911F910F910F900FBE0F90C1
:101460001F9018950F931F93CF93DF9320916101E5
:1014700030E0281739070CF471C09C0193E0220F6B
:10148000331F9A95E1F7C0916201D0916301C20FB9
:10149000D31FF894529A5A9845E04A95F1F7000004
:1014A000982F969595708570890F982F93708695D3
:1014B0008695890F8901082B0E94EF0884E08A95A0
:1014C000F1F700C067E0802F0E945F0940E14A9574
:1014D000F1F752985A9A4A9902C000C0FCCF87E0AF
:1014E00090E04A9B0EC0019751F4529A5A9AE881B3
:1014F000F98181E08083789481E090E031C000C080
:10150000F0CF6D81662381F08E819F810E941F093B
:1015100081110AC0529A5A9AE881F98182E0808347
:10152000789482E090E01CC00E94E70880E28A95EF
:10153000F1F75A98529A40E14A95F1F76A81662389
:1015400021F08B819C810E947F090E94EF08E88135
:10155000F9811082789480E090E002C084E090E00D
:10156000DF91CF911F910F9108959093690180931E
:1015700068010895E0916801F0916901309721F0C8
:101580000190F081E02D099480E00895E0916801D8
:10159000F0916901309721F00280F381E02D0994E8
:1015A0000895E0916801F0916901309739F022E0E7
:1015B000DC012C930480F581E02D0994089520919D
:1015C0006601309167018217930771F0909367016C
:1015D00080936601E0916801F0916901309721F0F4
:1015E0000680F781E02D09940895209164013091DF
:1015F00065018217930771F09093650180936401F0
:10160000E0916801F0916901309721F00084F18543
:10161000E02D0994089585B7806885BF85B78068F7
:1016200085BF089508950C94120B08950C94150B22
:101630000E940B0B0E942D040C94130B81E0089563
:101640000E9445170E947E020E94BB170C94160B45
:10165000CF92DF92EF92FF920F931F93CF93DF937E
:10166000CDB7DEB72B970FB6F894DEBF0FBECDBF58
:101670000E94A1030E941E0B811111C08FEF89836C
:101680008A831B820E944E178160782F9D838C83F2
:1016900049815A816B818D810E94D00B56C08BE6A7
:1016A000C82E81E0D82E00E010E0E02E802F0E94AE
:1016B0000A04F60141916F01F42EF82631F40F5F10
:1016C0001F4F0830110589F7D9CF9091E40191FFA0
:1016D00004C08B870E9410048B8520E030E04F2DE2
:1016E00050E0922FBA01022E02C0759567950A94B8
:1016F000E2F760FF24C02E83EF8221E030E0690131
:1017000002C0CC0CDD1C9A95E2F790E08C219D2163
:10171000892B09F420E028870E944E178160782FDA
:101720009A8789874E815F8168858A850E94D00B60
:10173000F801E559FE4F8081C826C08206C02F5FA0
:101740003F4F2730310569F6BACF0E944E191091EC
:101750006A010E94BA0A1817A1F00E94BA0A80937F
:101760006A012B960FB6F894DEBF0FBECDBFDF9196
:10177000CF911F910F91FF90EF90DF90CF900C943D
:10178000C5042B960FB6F894DEBF0FBECDBFDF9118
:10179000CF911F910F91FF90EF90DF90CF90089520
:1017A000CF93DF93CDB7DEB72B970FB6F894DEBF9C
:1017B0000FBECDBF4F83588769877A878B87DE013D
:1017C000119686E0FD0111928A95E9F785E0FE0108
:1017D000379601900D928A95E1F749815A816B8184
:1017E0007C818D819E810E9448122B960FB6F894C1
:1017F000DEBF0FBECDBFDF91CF910895FC01808188
:1018000091810E9414150895882309F4C6C09CEFA5
:10181000980F913A40F4682F80911C0190911D011E
:101820000E94BD160DC090E2980F983058F4877052
:1018300091E001C0990F8A95EAF7892F0E94561509
:101840000C949F159BE5980F933070F4853A29F01E
:10185000863A31F083E890E005C081E890E002C06C
:1018600082E890E00C94DF0A98E5980F973108F031
:101870008EC0883A09F445C0893A09F445C08A3ACD
:1018800009F445C08B3A09F445C08C3A09F445C0C7
:101890008B3B09F445C08C3B09F445C08D3A09F4F3
:1018A00045C0803B09F445C08E3A09F445C08F3AE3
:1018B00009F445C0813B09F445C0823B09F445C0A9
:1018C000833B09F445C0843B09F445C0853B09F4DA
:1018D00045C0863B09F445C0873B09F445C0883BB9
:1018E00009F445C0893B09F445C08D3B09F445C066
:1018F0008E3B09F445C08A3B09F445C080E090E086
:1019000044C082EE90E041C089EE90E03EC08AEE95
:1019100090E03BC085EB90E038C086EB90E035C0AE
:1019200083EB90E032C084EB90E02FC087EB90E037
:101930002CC08CEC90E029C08DEC90E026C083E8B0
:1019400091E023C08AE891E020C082E991E01DC0C7
:1019500084E991E01AC081E292E017C083E292E04C
:1019600014C084E292E011C085E292E00EC086E2EB
:1019700092E00BC087E292E008C08FE690E005C0DD
:1019800080E790E002C08AE292E00C94F50A803F82
:1019900020F00E9456180C9443190895882389F169
:1019A0009CEF980F913A40F4682F80911C01909120
:1019B0001D010E94BF160DC090E2980F983058F498
:1019C000877091E001C0990F8A95EAF7892F0E94EC
:1019D0005C150C949F159BE5980F933020F480E0E4
:1019E00090E00C94DF0A98E5980F973120F480E09E
:1019F00090E00C94F50A803F20F00E94BE180C94F1
:101A000043190895CF93C82F0E94040CC93349F499
:101A10002FEF87EE93E0215080409040E1F700C027
:101A200000008C2FCF910C94CE0C882321F00E94C3
:101A300056150C949F150895882321F00E945C157B
:101A40000C949F150895BF92CF92DF92EF92FF9270
:101A50000F931F93CF93DF937C01062FC72FFC01B9
:101A6000158112951F70D281D1110E9473150E94A9
:101A70004C15882379F0DD2369F080E2800F8830EF
:101A800048F082E00E94EA150E944C1591E0B82EC1
:101A9000B92601C0B12CCC2EC2948FE0C822D12C23
:101AA000F601E859FF4F0C94B0208C2F807FCF7047
:101AB000882311F0C295C07FDD2399F0CC2309F46F
:101AC000AEC180E2800F883010F0011104C08C2F6D
:101AD0000E94561503C08C2F0E9466150E949F1508
:101AE0009EC1802F0E94CE0CCC2309F4BDC180E2A0
:101AF000800F883010F0011104C08C2F0E945C15FB
:101B000003C08C2F0E946C150E949F15ADC18C2FB5
:101B1000807FCF70803211F0C295C07F002319F012
:101B20000130C9F022C0DD2371F0112341F01130E2
:101B300031F40E9486158C2B0E948C1595C10E9451
:101B400086158C2B1DC0112319F0113009F48CC19E
:101B50000E94951525C0DD2321F0163008F084C1C0
:101B60000EC0153008F080C11BC0DD2361F01123C9
:101B700031F0F701858180FF52C18F7085838C2FF2
:101B80000E94150D71C1112359F0093309F058C194
:101B9000FFEF27EE83E0F15020408040E1F74EC197
:101BA0008C2F0E941C0D60C1DD23F9F0053F51F020
:101BB000063F71F0043FA9F48091FB019091FC0174
:101BC00081600BC08091FB019091FC01826005C097
:101BD0008091FB019091FC0184609093FC018093C3
:101BE000FB01802F0E9456181EC0053F51F0063F92
:101BF00071F0043FA9F48091FB019091FC018E7F6C
:101C00000BC08091FB019091FC018D7F05C08091FC
:101C1000FB019091FC018B7F9093FC018093FB0171
:101C2000802F0E94BE180E94431929C18C2F8370F7
:101C300009F049C0D1111FC1402F42954695477008
:101C4000440F440F602F6F70862F90E0A0E0B0E04B
:101C5000042E04C0880F991FAA1FBB1F0A94D2F735
:101C600004FF10C00FE010E020E030E004C0000FDF
:101C7000111F221F331F4A95D2F70095109520950A
:101C8000309503C000E010E09801C695C695C3707A
:101C9000D0E0BC01CD01602B712B822B932BC23085
:101CA000D10559F0C330D10559F0219719F00E94A0
:101CB0008D13E1C00E947B13DEC00E949F13DBC026
:101CC0000E947913D8C0DD2319F08C2F817001C0D8
:101CD0008695882309F4CFC0402F429546954770DA
:101CE000440F440F602F6F70862F90E0A0E0B0E0AB
:101CF000042E04C0880F991FAA1FBB1F0A94D2F795
:101D000004FF10C00FE010E020E030E004C0000F3E
:101D1000111F221F331F4A95D2F700951095209569
:101D2000309503C000E010E09801C695C695C370D9
:101D3000D0E0BC01CD01602B712B822B932BC230E4
:101D4000D10559F0C330D10559F0219719F00E94FF
:101D5000531491C00E9441148EC00E9465148BC020
:101D60000E94B41388C0CF70DD2339F08C2F0E94FD
:101D7000DA13802F0E94150D7EC0802F0E941C0D4B
:101D80008C2F0E94FB1377C0023F01F128F4003F23
:101D900041F0013FA1F03FC0033FF9F0043F39F1AA
:101DA0003AC0DD2341F0153008F05EC08C2F8F71F2
:101DB0000E94201459C0163008F056C0F7CFDD231A
:101DC00039F08C2F8F710E94DA134EC0DD23C9F3D6
:101DD0008C2F8F710E94FB1347C0DD2329F08C2FBD
:101DE0008F710E94C51340C00E94C0133DC0DD2307
:101DF00049F0CF718C2F0E94DA1363E08C2F0E9480
:101E0000D51532C081E00E94EA15123068F182E0F7
:101E10000E94EA1529C0DD2331F0112391F2802FB1
:101E20000E94040C21C0112399F2093349F49FEF59
:101E3000E7EEF3E09150E040F040E1F700C0000031
:101E4000802F0E94CE0C10C04C2F4F70602FC70106
:101E50000E94C6050E94EC1212C04C2F4F70602FDA
:101E6000C7010E94C9050BC028E0C21AD10884E04E
:101E7000C816D10420F40E94BA0A0E94C504BB20EF
:101E8000D1F00E94481580FD16C0F70112820E9411
:101E900042150E94DA13C7010E94650F0E94421585
:101EA000DF91CF911F910F91FF90EF90DF90CF9036
:101EB000BF900C94FB13DF91CF911F910F91FF9076
:101EC000EF90DF90CF90BF9008950F931F93CF9323
:101ED000DF93EC01888199812B813C81232BB9F020
:101EE0009F3F11F48F3F99F0CE010E94DD048823BB
:101EF00071F0688179818A810E941F158C010E948E
:101F000077140E947813B801CE010E94230DDF914F
:101F1000CF911F910F9108950E9473150E94831510
:101F20000E949F150E94E9190C94431980911C018D
:101F300090911D010E94C1160C948C0F0E94631594
:101F40000C94960FE92FE295EF70F0E03297EE30A7
:101F5000F105B0F4E858FF4F0C94B020803F91F0A9
:101F600018F4883E68F40EC0843F51F40BC0883EDC
:101F700048F0813F29F406C093FB882780F9089533
:101F800080E0089581E008950E9414150E94A20F38
:101F90000895CF93DF9300D000D01F92CDB7DEB766
:101FA0000F900F900F900F900F90DF91CF910895A9
:101FB000CF93DF9300D000D000D0CDB7DEB7269608
:101FC0000FB6F894DEBF0FBECDBFDF91CF9108955D
:101FD0001F93CF93DF93C091740116E08091750138
:101FE000C81799F0D0E01C9FF0011D9FF00D11243F
:101FF000EA58FE4F408151816281738184819581CD
:102000000E94D80F2196C770E9CFDF91CF911F9121
:1020100008954091A6015091A7016091A801709187
:10202000A9018091AA019091AB010C94D80F8091E5
:10203000AB0182958F7009F054C08091A80188236C
:1020400009F44FC080917401A09175016091A601BF
:102050007091A7014091A9015091AA01B6E08A1799
:1020600009F43FC090E041155105C1F17F3F11F4E3
:102070006F3FA1F1B89FF001B99FF00D1124EA580C
:10208000FE4F218172132AC02081621327C0228152
:10209000211124C0238134812417350710F42150E5
:1020A0003109241B350B283C3105C0F42091AB01CC
:1020B0002F7020612093AB0126E0289FF001299F1B
:1020C000F00D1124E558FE4F80818F708061808370
:1020D00086EA91E00E94650F0C94E80F01968770E4
:1020E000BECF0895CF92DF92EF92FF920F931F938E
:1020F000CF93DF93CDB7DEB762970FB6F894DEBF0C
:102100000FBECDBF8C0185E0F801DE011D96019068
:102110000D928A95E1F7D8014C9111965C91119737
:1021200012966C9112971396CD90DC901497309183
:10213000A6017091A7018091A9019091AA01009731
:1021400009F46BC17F3F19F43F3F09F466C1E09089
:10215000A801EE2009F4C0C02091AB01C816D90631
:1021600028F0F601E81BF90BCF0104C0809590958B
:102170008C0D9D1DFF24F394883C910578F0F12C83
:10218000207F09F0C6C07C2DD98AC88A89890E941F
:10219000C90F86EA91E00E94650FB1C0822F807F4F
:1021A00009F046C0751314C0341312C0611110C079
:1021B0002F7020612093AB010E94091086EA91E004
:1021C0000E94650F8091AB01D80115968C932EC0AB
:1021D000CD2819F15F3F11F44F3FF9F0F62E611150
:1021E0001CC0809174012091750136E0821709F4BA
:1021F0005AC090E0389FF001399FF00D1124EA5841
:10220000FE4F7181571306C07081471303C072815E
:10221000711103C001968770E9CFF62E662309F489
:1022200027C18091AB0181608093AB01F12C20C16B
:10223000751308C0341306C0611104C08091AB014E
:10224000D801C3C04D875E878D859E856A8B0E94AD
:10225000C40F6A898823E1F16623D1F12091AB0193
:10226000822F82958F7090E0029774F08091A60182
:102270009091A70198878F831986DB86CA862C8761
:10228000CE0107960E94650F86E0F801A6EAB1E04C
:1022900001900D928A95E1F70E9417100E94091093
:1022A000FF24F394E5C04D875E878D859E850E944F
:1022B0001415292F22952F7030E0223031050CF0B3
:1022C000CBC09F7009F0C5C0805E883008F4D0C0D4
:1022D000C8010E94650FE4CFC816D90608F453C0A0
:1022E000F601E81BF90BCF01883C910508F450C0BA
:1022F000F12C7C2DD98AC88A89890E94C90FE6EA07
:10230000F1E086E0DF011D928A95E9F70E9409104D
:10231000AFC0751314C0341312C0611110C0809186
:10232000AB01F8018583C8010E94650F86E0E6EAEB
:10233000F1E0DF011D928A95E9F7FE2C99C04D87E7
:102340005E878D859E856A8B0E94C40F6A8988236B
:1023500009F4BECF662309F4BBCF2091AB01822FD5
:1023600082958F7090E002970CF48ECF8091A60139
:102370009091A7019A8389831B82DD82CC822E8370
:10238000CE0101967FCF809590958C0D9D1DACCF91
:10239000F62E662309F49CCF75132EC034132CC07F
:1023A0002091AB0120FD1FC0822F82958F70D9F044
:1023B000D80115962C9315978F3049F08F5F982F81
:1023C0009295907F822F8F70892B15968C93C801E0
:1023D0000E94650F86E0F801A6EAB1E001900D9237
:1023E0008A95E1F793CF86E0F801A6EAB1E0019083
:1023F0000D928A95E1F73CC04D875E878D859E855D
:102400000E94C40F811140CF8091AB018160809305
:10241000AB01C8010E94650F2BC0662309F458CF99
:102420004D875E878D859E850E94C40FF82E882378
:1024300009F44ECF86E0F801A6EAB1E001900D92D2
:102440008A95E1F786EA91E00E94FE0B0E94171040
:102450005DCF811139CF0CC0243031050CF038CF5D
:102460009F7009F431CFF8019581907F09F02CCF4E
:102470008F2D62960FB6F894DEBF0FBECDBFDF91F1
:10248000CF911F910F91FF90EF90DF90CF90089523
:102490001F93CF93DF93CDB7DEB72C970FB6F89489
:1024A000DEBF0FBECDBF4F83588769877A878B8782
:1024B0009C87CE0107960E947210882369F08F8155
:1024C00098852A853B85232BF1F19F3F09F063C056
:1024D0008F3F09F060C037C086E0FE013796DE010D
:1024E000119601900D928A95E1F76F817885EA85C2
:1024F000FB85309741F17F3F11F46F3F21F120912F
:10250000750130E0C90101968770992740917401E7
:1025100050E08417950709F447C069837A83FD83E7
:10252000EC8396E0929FD001939FB00D1124AA589E
:10253000BE4FFE01319601900D929A95E1F780937E
:1025400075010E94E80F16E0809174019091750169
:102550008917C1F1189FC00111248A589E4F0E940B
:102560007210882379F1E09174011E9FF00111240B
:10257000EA58FE4F40815181628173818481958147
:102580000E94D80F8091740190E00196877099277E
:1025900080937401D9CF4F81588569857A858B8561
:1025A0009C850E94D80FCFCF0E949E0F109275017C
:1025B00010927401E6EAF1E086E0DF011D928A954F
:1025C000E9F7C1CF2C960FB6F894DEBF0FBECDBF92
:1025D000DF91CF911F910895EF92FF920F931F9378
:1025E000CF93DF938C01892B09F46CC0F12CEE247E
:1025F000E394E8012196F8018491843740F4843013
:1026000008F051C0813081F0823019F15BC085370C
:1026100009F444C0A8F19CE7980F903708F052C025
:102620008F770E94CE0C41C00E5F1F4FFE01C491F8
:1026300080E28C0F883048F4C7708E2D01C0880F5F
:10264000CA95EAF70E94761514C08C2F0E94040CDC
:102650002DC00E5F1F4FFE01C49180E28C0F8830A9
:1026600058F4C7708E2D01C0880FCA95EAF70E94F2
:102670007C150E949F151AC08C2F0E94CE0C16C08C
:102680000E5F1F4FFE01C491CC2381F08FE99FE0C4
:102690000197F1F700C00000C150F6CF0E5F1F4F49
:1026A000FE01F49003C00E94040C8E018F2D88233C
:1026B00009F49FCFEFE9FFE03197F1F700C0000088
:1026C0008150F5CFDF91CF911F910F91FF90EF9047
:1026D000089508950C9469130E946A136093D301BE
:1026E0007093D4018093D5019093D6010C948C0FF4
:1026F00008950C946C130F931F930091D3011091C4
:10270000D4012091D5013091D601602B712B822B01
:10271000932B1F910F910C946C130F931F930091A7
:10272000D3011091D4012091D5013091D6016023BD
:102730007123822393231F910F910C946C130F9399
:102740001F930091D3011091D4012091D5013091B4
:10275000D60160277127822793271F910F910C9430
:102760006C1308950C94B1130E94B2136093CF01BF
:102770007093D0018093D1019093D2010C948C0F6F
:1027800060E070E0CB010C94B4130F931F9341E011
:1027900050E060E070E08A019B0104C0000F111F4F
:1027A000221F331F8A95D2F7C901B8011F910F91DB
:1027B0000C94B4130F931F9341E050E060E070E07D
:1027C00004C0440F551F661F771F8A95D2F780916A
:1027D000CF019091D001A091D101B091D2018A0195
:1027E0009B01082B192B2A2B3B2BC901B8011F91E8
:1027F0000F910C94B4130F931F9341E050E060E0ED
:1028000070E004C0440F551F661F771F8A95D2F7EA
:1028100040955095609570958091CF019091D00131
:10282000A091D101B091D2018A019B010823192303
:102830002A233B23C901B8011F910F910C94B413B3
:102840000F931F9341E050E060E070E004C0440F3C
:10285000551F661F771F8A95D2F78091CF019091FF
:10286000D001A091D101B091D2018A019B0108272A
:1028700019272A273B27C901B8011F910F910C94F2
:10288000B4130F931F930091CF011091D0012091A9
:10289000D1013091D201602B712B822B932B1F9190
:1028A0000F910C94B4130F931F930091CF011091CB
:1028B000D0012091D1013091D20160237123822374
:1028C00093231F910F910C94B4130F931F930091B6
:1028D000CF011091D0012091D1013091D201602718
:1028E0007127822793271F910F910C94B413089599
:1028F00027E0929F800D1124A82FA695A695A69556
:10290000877051E001C0550F8A95EAF785E0A89FCE
:10291000D001112420E030E070E0F901EA0FFB1F44
:10292000E455FE4F4081CB01022E02C0969587955B
:102930000A94E2F78170992781958427852384275B
:1029400080832F5F3F4F2530310539F7089527E009
:10295000929F800D1124682F669566956695982F35
:10296000977085E0689FB001112440E050E080E05E
:10297000FA01E60FF71FE455FE4F208130E0092EE3
:1029800002C0369527950A94E2F721703327042E6A
:1029900001C0220F0A94EAF7822B4F5F5F4F453048
:1029A000510531F70895BF92CF92DF92EF92FF92D7
:1029B0000F931F93CF93DF938C01C090D301D090DE
:1029C000D401E090D501F090D6018091CF01909193
:1029D000D001A091D101B091D201C82AD92AEA2A06
:1029E000FB2ACFE1D0E0D701C6010C2E04C0B6957A
:1029F000A795979587950A94D2F780FF07C0BC2EBC
:102A0000B8018C2F0E94E405019719F4219758F71B
:102A1000B12C8B2DDF91CF911F910F91FF90EF90F3
:102A2000DF90CF90BF900895CF93DF93EC010E9489
:102A3000D314BE010E94E405DF91CF9108951F9346
:102A4000CF93DF93EB0190917301992321F0CB0198
:102A50000E94141513C0882349F0CB010E94D3149F
:102A6000182F682FCE010E94781404C0CB010E9459
:102A7000A714182FBE01812F0E94E405DF91CF918A
:102A80001F9108958091D701859585958595089525
:102A90008091D701877008959091D701977081E058
:102AA00009F480E008958091E30108959091E30195
:102AB000892B8093E301089580959091E301892308
:102AC0008093E30108951092E30108959091E2014B
:102AD000892B8093E201089580959091E2018923EA
:102AE0008093E20108951092E20108959091E1012E
:102AF000892B8093E101089580959091E1018923CC
:102B00008093E10108951092E10108958091D80128
:102B1000089508950C9489159091D801981721F083
:102B20008093D8010C948A1508958091D801882348
:102B300029F01092D80180E00C948A150895E09154
:102B40001C01F0911D018091E3018083E0911C0143
:102B5000F0911D0190818091E201892B8083E091A9
:102B60001C01F0911D0190818091E101892B8083EE
:102B70008091D801882381F0E0911C01F0911D0122
:102B80009081892B808380911C0190911D010E946E
:102B90008B1681110E94951580911C0190911D0149
:102BA0000C94C60A08950C94D21598E0899F900160
:102BB0001124262B2093D7010E94DA138091D7018C
:102BC0008595859585950C94D3151092D70180E055
:102BD0000C94D3152091D701809582238093D7013F
:102BE000982F977079F430E0482F082E000C550B81
:102BF0002417350739F08595859585950E94FB1337
:102C00000C94E515089580E090E00E94DF2021E01B
:102C10008D3E9E4F09F020E0822F089582E090E0E3
:102C20000C94D72083E090E00C94D72084E090E0CF
:102C30000C94D720682F84E090E00C94E520AB0141
:102C4000BC018FE090E00C94F720AB01BC0183E164
:102C500090E00C94F72060E070E0CB010C94251616
:102C600060E070E0CB010E941F160C942B166DEEF5
:102C70007EEF80E090E00E94032160E082E090E03F
:102C80000E94E52060E083E090E00E94E520109241
:102C9000D3011092D4011092D5011092D60160E0B8
:102CA00084E090E00E94E52060E085E090E00E94F2
:102CB000E52060E086E090E00E94E5206FEF87E08D
:102CC00090E00E94E52040E050E0BA0188E090E00A
:102CD0000E94F72060E08DE090E00E94E52040E057
:102CE00050E0BA0188E190E00E94F72060E087E1BF
:102CF00090E00E94E52040E050E0BA018CE190E0D5
:102D00000E94F72060E080E290E00E94E5200C94B1
:102D100030160C943716FC01329697E080E0915003
:102D200029F021912223D9F38F5FF9CF08959C01D7
:102D3000FC0132969FEF80E04191461789F09F3F5A
:102D400019F4411101C0982F8F5F8630A9F79F3F7A
:102D500039F0F901E90FF11D97FDFA9562830895A5
:102D60000895FC01329608962081261301C0108236
:102D70003196E817F907C1F708950C9497160C944B
:102D8000B116029626E0FC0111922A95E9F7089502
:102D900008950C94C8160E94C916809107028430C9
:102DA00049F11092E50120E488E190E00FB6F89433
:102DB000A895809360000FBE2093600080E00E9481
:102DC000C5040E94C91683B7817F846083BF83B71F
:102DD000816083BF7894889583B78E7F83BF0FB659
:102DE000F894A895809160008861809360001092AB
:102DF00060000FBE089508950895CF930E94FB16BA
:102E00000E94A1030E94FC16C0E08C2F0E940A04BD
:102E1000811104C0CF5FC830C1F701C081E0CF91FC
:102E2000089508950C9411170E949E0F0E94BA0AEB
:102E30000E94C5040C9412171F920F920FB60F92A6
:102E400011248F939F93AF93BF938091E5018111DC
:102E500013C08091FD019091FE01A091FF01B091FE
:102E600000024196A11DB11D8093FD019093FE01CA
:102E7000A093FF01B0930002BF91AF919F918F91FA
:102E80000F900FBE0F901F90189582E084BD93E0C5
:102E900095BD9AEF97BD80936E0008952FB7F89473
:102EA0008091FD019091FE01A091FF01B09100027F
:102EB0002FBF0895CF92DF92EF92FF920F931F934F
:102EC0002FB7F8944091FD015091FE016091FF01F0
:102ED000709100022FBF6A017B01EE24FF248C0158
:102EE00020E030E0C016D106E206F30610F44150AF
:102EF00051099A01281B390BC9011F910F91FF90AD
:102F0000EF90DF90CF90089578941F920F920FB6B4
:102F10000F9211248F939F93AF93BF938091FD01E4
:102F20009091FE01A091FF01B09100020196A11DB8
:102F3000B11D8093FD019093FE01A093FF01B0931A
:102F40000002BF91AF919F918F910F900FBE0F9094
:102F50001F90189587E797E79093010880930008E2
:102F60009AE088E10FB6F894A895809360000FBEB0
:102F700090936000FFCF0E940316811102C00E944F
:102F800089160E940E168093E4010E94161690E0A6
:102F900090930202809301020E941216682F70E043
:102FA00080E090E00C9479138091E90180FF0BC0E0
:102FB0006091210185E0689FB001112475956795A6
:102FC000759567952BC081FF09C06091210185E04F
:102FD000689FB00111247595679520C082FF07C0D6
:102FE0006091210185E0689FB001112417C0909184
:102FF000E8019923D1F060912001961788F720917C
:10300000210185E0289F90011124929FA001939FA8
:10301000500D112470E0CA010E949C206038710597
:1030200040F46115710539F002C065E070E0862F4B
:1030300008958FE7089581E008958091E90180FF68
:1030400008C060911F0170E075956795759567954B
:1030500021C081FF06C060911F0170E075956795E2
:1030600019C082FF04C060911F0170E010C09091F0
:10307000E8019923C1F060911E019617A0F7809195
:103080001F01899FC001112470E00E949C206038BC
:10309000710528F46115710521F0862F08958FE7D9
:1030A000089581E0089561E070E0F4CF803F21F45D
:1030B0000E94D417819504C0813F29F40E94D4173F
:1030C0008093ED010895823F21F40E94D4178195E9
:1030D00004C0833F29F40E94D4178093EC01089523
:1030E000893F19F40E941D1805C08A3F31F40E94DF
:1030F0001D1881958093EE0108958B3F21F40E9465
:103100001D18819504C08C3F29F40E941D188093DE
:10311000EF010895843F21F48091EB01816017C095
:10312000853F21F48091EB01826011C0863F21F43C
:103130008091EB0184600BC0873F21F48091EB010B
:10314000886005C0883F31F48091EB0180618093F5
:10315000EB0108958D3F21F48091E90181600BC05E
:103160008E3F21F48091E901826005C08F3F29F4F0
:103170008091E90184608093E9010895803F39F4EA
:103180008091ED0187FF6CC01092ED0169C0813F15
:1031900029F48091ED011816BCF362C09091EC0106
:1031A000823F29F497FF5CC01092EC0159C0833F25
:1031B00019F41916CCF354C0893F41F48091EE0103
:1031C00018160CF04DC01092EE014AC08A3F29F447
:1031D0008091EE0187FF44C0F6CF8B3F39F4809198
:1031E000EF0187FF3DC01092EF013AC08C3F29F4F8
:1031F0008091EF011816BCF333C0843F21F4809115
:10320000EB018E7F17C0853F21F48091EB018D7F0C
:1032100011C0863F21F48091EB018B7F0BC0873F6B
:1032200021F48091EB01877F05C0883F31F48091C4
:10323000EB018F7E8093EB0113C08D3F21F48091D1
:10324000E9018E7F0BC08E3F21F48091E9018D7FD3
:1032500005C08F3F29F48091E9018B7F8093E901BC
:103260008091EC0181110EC08091ED0181110AC0A5
:103270008091EE01811106C08091EF01811102C0A1
:103280001092E80108958AEE91E00E94D10A0E940E
:103290004E179093E7018093E60108951F93CF9313
:1032A000DF938091E6019091E7010E945A17AC01EB
:1032B0009091E801992321F02091220130E006C08D
:1032C000209123018AE0289F90011124421753077F
:1032D00008F47BC08091EC01C091ED01D091EE012A
:1032E0001091EF01811107C0C1116BC0D11169C0EC
:1032F000111167C06AC09F3F19F09F5F9093E8016A
:10330000181624F40E94D4178093EC018091EC01EC
:1033100087FF05C00E94D41781958093EC011C168D
:1033200024F40E94D4178093ED018091ED0187FF72
:1033300005C00E94D41781958093ED013091EC0176
:103340003323E1F02091ED012223C1F045EB34035A
:10335000C0011124892F990F990B009709F481E07E
:103360008093EC0135EB2303C0011124892F990FC1
:10337000990B009709F481E08093ED011D1624F468
:103380000E941D188093EE018091EE0187FF05C019
:103390000E941D1881958093EE01111624F40E945D
:1033A0001D188093EF018091EF0187FF05C00E94F7
:1033B0001D1881958093EF01DF91CF911F910C949F
:1033C00043199F3F09F099CFA1CFDF91CF911F9172
:1033D0000895EAEEF1E086E0DF011D928A95E9F7B3
:1033E0001092E8011092E90108958091F801089582
:1033F00008950895CF93DF93EC010E94E31B823080
:1034000011F08430F9F482E08093E9009FEF80911D
:10341000E800915085FD06C085ED8A95F1F7000022
:103420009111F5CF8091E80085FF0CC040E050E09D
:1034300066E070E0CE010E94001C8091E8008E776B
:103440008093E800DF91CF910895CF93DF93EC0153
:103450000E94E31B823011F0843039F581E08093C3
:10346000E9008FEF9091E800815095FD06C095ED41
:103470009A95F1F700008111F5CF8091E80085FF62
:1034800014C040E050E068E070E0CE010E94001CF3
:103490008091E8008E778093E80088E0FE01A0EF3D
:1034A000B1E001900D928A95E1F7DF91CF910895F7
:1034B00080910602811109C00E94951D0E94F21D93
:1034C0008091E20084608093E200089510920602E9
:1034D0000895089508950C94141742E061EC81E07A
:1034E0000E940F1D42E261EC82E00C940F1D80915E
:1034F0000902833009F460C030F4813071F0823009
:1035000009F499C008958A3009F485C08B3009F414
:103510006BC0893009F0A7C020C080910802813AB1
:1035200009F0A1C08091E800877F8093E800809136
:103530000C0290910D02892B21F468E080EF91E05C
:1035400003C060E080E090E070E00E944B1C80913E
:10355000E8008B778093E80008958091080281321B
:1035600009F081C080910C0290910D02029708F041
:103570007AC08091E800877F8093E8008091E8001E
:1035800082FD05C0809107028111F8CF6CC02091A7
:10359000F3008091F20090E0922B029729F4809141
:1035A000F1008B7F813021F48091F1008093F8014C
:1035B0008091E8008B7753C080910802813A09F02E
:1035C00052C080910C0290910D02892B09F04BC0E2
:1035D0008091E800877F8093E8008091E80080FF79
:1035E000FCCF80912E0136C0809108028132D9F53E
:1035F00080910C0290910D02892BA9F58091E80031
:10360000877F8093E8000E94441D80910A02809386
:103610002E010C949E0F80910802813221F5809139
:10362000E800877F8093E8000E94441D80910B0290
:103630008093F901089580910802813AA1F4809164
:10364000E800877F8093E8008091E80080FFFCCF4E
:103650008091F9018093F1008091E8008E7780934A
:10366000E8000C94441D089584B7877F84BF0FB68B
:10367000F894A89580916000886180936000109212
:1036800060000FBE80E880936100109261000E948C
:10369000180B0E94951D0E94F21D8091E20084602B
:1036A0008093E20078940E9481200E94200B84E2A3
:1036B00091E00E94B50A80910702853069F40E946A
:1036C000CB16809105028823B1F30E94FD16882352
:1036D00091F30E94EA1BEFCF0E94280BECCF0C94D1
:1036E000711B292F332723303105C9F064F42130B1
:1036F000310581F02230310509F04CC08BE390E0B8
:103700002CE233E04BC02132310521F12232310568
:1037100089F140C082E190E027E633E03FC099277D
:103720008130910571F02CF4892BA1F5E8E2F3E0EA
:103730000DC08230910541F0039761F5E0EEF2E0B3
:1037400005C0E6E1F3E002C0E6EEF2E0849190E02D
:103750009F0124C06115710541F061307105D1F4FC
:1037600089E090E027E533E019C089E090E02EE39E
:1037700033E014C06115710541F06130710551F4F9
:103780008FE490E029E733E009C080E490E028EC82
:1037900033E004C080E090E020E030E0FA013183C3
:1037A000208308950895CF93C82F0E94D21BC09301
:1037B000FA01CF91089580910702843011F081E0E1
:1037C000089582E008958091FA01811102C00C945D
:1037D000DB1B089580E189BD82E189BD09B400FE4B
:1037E000FDCF8091D8008F7D8093D8008091E0003C
:1037F00082608093E0008091E00081FDFCCF08951D
:10380000CF92DF92EF92FF920F931F93CF93DF93AC
:10381000EC018B016A010E94631D811133C0C11448
:10382000D10439F0F60180819181081B190BC80F72
:10383000D91FE12CF12C0115110519F18091E80037
:1038400085FD16C08091E8008E778093E800C11452
:10385000D10449F0F60180819181E80EF91EF182D0
:10386000E08285E00FC00E94631D882321F30AC017
:1038700089918093F10001501109FFEFEF1AFF0ABF
:10388000DACF80E0DF91CF911F910F91FF90EF9001
:10389000DF90CF90089520910E0230910F022617ED
:1038A000370748F06115710539F42091E8002E774B
:1038B0002093E80001C0B90140E061157105A9F14C
:1038C00020910702222309F443C0253009F442C0A5
:1038D0002091E80023FD40C02091E80022FD32C085
:1038E0002091E80020FFE9CF4091F3002091F20001
:1038F00030E0342BFC01CF016115710559F02830FF
:10390000310540F481918093F100615071092F5F7E
:103910003F4FF1CF41E02830310509F040E02091E0
:10392000E8002E772093E800C8CF4111C9CF0AC024
:1039300080910702882361F0853061F08091E80072
:1039400083FD0AC08091E80082FFF2CF80E00895F5
:1039500082E0089583E0089581E0089520910E02A9
:1039600030910F022617370748F06115710539F4B9
:103970002091E8002E772093E80001C0B901FC01F6
:1039800020E06115710591F180910702882309F407
:1039900040C0853009F43FC08091E80083FD3DC000
:1039A0008091E80082FD2FC08091E80080FFE9CF80
:1039B0002091F3008091F20090E0922B6115710547
:1039C00059F08830910540F424912093F10031960C
:1039D000615071090196F2CF21E0089709F020E0CB
:1039E0008091E8008E778093E800CBCF2111CCCF77
:1039F0000AC080910702882361F0853061F08091D0
:103A0000E80083FD0AC08091E80082FFF2CF80E0E9
:103A1000089582E0089583E0089581E00895982F45
:103A2000973058F59093E900981739F07091EC00B1
:103A30002091ED005091F00003C0242F762F50E02C
:103A400021FF19C03091EB003E7F3093EB003091A5
:103A5000ED003D7F3093ED003091EB00316030930D
:103A6000EB007093EC002093ED005093F000209158
:103A7000EE0027FF07C09F5FD3CF8F708093E900D0
:103A800081E0089580E008958091080287FF11C0C9
:103A90008091E80082FD05C0809107028111F8CF76
:103AA00011C08091E8008B770BC0809107028823BA
:103AB00049F08091E80080FFF8CF8091E8008E7790
:103AC0008093E80008952091E4003091E50095E6A8
:103AD0004091EC00842F817040FF22C08091E8006B
:103AE00080FD1CC080910702882391F0853091F001
:103AF0008091EB0085FD10C04091E4005091E500FD
:103B00004217530729F39A01915011F784E0089561
:103B100082E0089583E0089581E0089580E00895AB
:103B20004091E80042FFDECF08950E94031E0E94EC
:103B30000B1EE0EEF0E0808181608083E8EDF0E034
:103B400080818F77808319BCA7EDB0E08C918E7F48
:103B50008C9380818F7E80831092060208950F934C
:103B60001F93CF93DF930E94031E0E940B1EC8ED8C
:103B7000D0E088818F778883888180688883888176
:103B80008F7D888319BC1092070210920302109255
:103B900005021092040200EE10E0F80180818B7F94
:103BA000808388818160888342E060E080E00E94B9
:103BB0000F1DE1EEF0E080818E7F8083E2EEF0E089
:103BC000808181608083808188608083F80180812A
:103BD0008E7F8083888180618883DF91CF911F9160
:103BE0000F910895E8EDF0E080818F7E8083E7ED0E
:103BF000F0E080818160808384E082BF81E08093F7
:103C000006020C94AF1DE8EDF0E080818E7F80838A
:103C10001092E20008951092DA001092E1000895E7
:103C20001F920F920FB60F9211242F933F934F9331
:103C30005F936F937F938F939F93AF93BF93EF9314
:103C4000FF938091E10082FF0BC08091E20082FF30
:103C500007C08091E1008B7F8093E1000E9480206B
:103C60008091DA0080FF1FC08091D80080FF1BC0C8
:103C70008091DA008E7F8093DA008091D90080FFF6
:103C80000DC080E189BD82E189BD09B400FEFDCF90
:103C900081E0809307020E94581A05C019BC109257
:103CA00007020E94661A8091E10080FF19C080918E
:103CB000E20080FF15C08091E2008E7F8093E200D9
:103CC0008091E20080618093E2008091D800806260
:103CD0008093D80019BC85E0809307020E946A1A7D
:103CE0008091E10084FF30C08091E20084FF2CC00D
:103CF00080E189BD82E189BD09B400FEFDCF8091DC
:103D0000D8008F7D8093D8008091E1008F7E8093D2
:103D1000E1008091E2008F7E8093E2008091E200DA
:103D200081608093E20080910302882311F084E097
:103D300007C08091E30087FD02C081E001C083E0FD
:103D4000809307020E946B1A8091E10083FF29C0D3
:103D50008091E20083FF25C08091E100877F8093FE
:103D6000E10082E080930702109203028091E1005B
:103D70008E7F8093E1008091E2008E7F8093E2004D
:103D80008091E20080618093E20042E060E080E0A8
:103D90000E940F1D8091F00088608093F0000E94C7
:103DA000691AFF91EF91BF91AF919F918F917F9190
:103DB0006F915F914F913F912F910F900FBE0F9098
:103DC0001F9018951F920F920FB60F9211242F93E8
:103DD0003F934F935F936F937F938F939F93AF9393
:103DE000BF93CF93DF93EF93FF93C091E900CF7020
:103DF0008091EC00D82FD17080FDD0E81092E900BE
:103E00008091F000877F8093F00078940E94261FB5
:103E10001092E9008091F00088608093F000CD2B33
:103E2000CF70C093E900FF91EF91DF91CF91BF91E7
:103E3000AF919F918F917F916F915F914F913F9142
:103E40002F910F900FBE0F901F9018951F93CF9337
:103E5000DF93CDB7DEB7AA970FB6F894DEBF0FBEDB
:103E6000CDBFE8E0F2E088E08E0F9091F1009193F1
:103E70008E13FBCF0E94771A8091E80083FF28C140
:103E80008091080290910902492F50E04A30510573
:103E900008F01EC1FA01EA57FF4F0C94B020803899
:103EA00021F0823809F014C108C080910402909179
:103EB0000502992389F082600FC080910C028F70F7
:103EC000873008F005C18093E9008091EB0085FB05
:103ED000882780F91092E9009091E800977F9093ED
:103EE000E8008093F1001092F100D0C0282F2D7FC0
:103EF00009F0EEC0882319F0823061F0E9C08091AA
:103F00000A02813009F0E4C0933009F080E0809328
:103F100005022EC080910A0281112AC080910C02F4
:103F20008F702FEF280F263008F0D2C08093E90061
:103F30002091EB0020FF1CC0933021F48091EB0016
:103F4000806214C09091EB0090619093EB0021E0AF
:103F500030E0A90102C0440F551F8A95E2F7409353
:103F6000EA001092EA008091EB0088608093EB00F9
:103F70001092E9008091E800877F8093E8000E941A
:103F8000441DA6C08111A4C010910A021F77809120
:103F9000E3008078812B8093E3008091E800877FA5
:103FA0008093E8000E94441D8091E80080FFFCCFD0
:103FB0008091E30080688093E300111102C082E0E9
:103FC00001C083E08093070283C08058823008F0EC
:103FD0007FC080910A0290910B028C3D53E09507BF
:103FE00079F583E08A838AE289834FB7F894DE010A
:103FF000139620E03EE051E2E32FF0E050935700AB
:10400000E49120FF03C0E295EF703F5FEF708E2FC9
:1040100090E0EA3010F0C79601C0C0968D939D9352
:104020002F5F243149F74FBF8091E800877F80934D
:10403000E8006AE270E0CE0101960E944B1C15C0B8
:1040400060910C0270910D02AE014F5F5F4F0E94B4
:104050006F1BBC01892BE1F19091E800977F909351
:10406000E80089819A810E94AE1C8091E8008B77DC
:104070008093E8002DC0803859F58091E800877F53
:104080008093E800809103028093F1008091E80022
:104090008E7773CF81111CC090910A029230C0F4C8
:1040A0008091E800877F8093E800909303020E944C
:1040B000441D80910302811106C08091E30087FDB9
:1040C00002C081E001C084E0809307020E946D1A63
:1040D0008091E80083FF0AC08091E800877F809389
:1040E000E8008091EB0080628093EB00AA960FB607
:1040F000F894DEBF0FBECDBFDF91CF911F91089521
:104100000895CF93809107028823A1F0C091E90020
:10411000CF709091EC00892F817090FD80E8C82BC2
:104120001092E9008091E80083FD0E94261FCF7065
:10413000C093E900CF91089597FB072E16F40094E1
:1041400007D077FD09D00E94B62007FC05D03EF4C9
:10415000909581959F4F0895709561957F4F089533
:10416000EE0FFF1F0590F491E02D0994AA1BBB1BD5
:1041700051E107C0AA1FBB1FA617B70710F0A61B67
:10418000B70B881F991F5A95A9F780959095BC0188
:10419000CD010895FB01DC0104C08D9101908019CF
:1041A00021F441505040C8F7881B990B0895F999A4
:1041B000FECF92BD81BDF89A992780B50895A8E1F8
:1041C000B0E042E050E00C940B21262FF999FECF8D
:1041D00092BD81BDF89A019700B4021639F01FBA5A
:1041E00020BD0FB6F894FA9AF99A0FBE0895039677
:1041F000272F0E94E6200E94E520252F0E94E6201E
:10420000242F0C94E6200196272F0E94E6200C9480
:10421000E520DC01CB01FC01F999FECF06C0F2BD1F
:10422000E1BDF89A319600B40D9241505040B8F774
:064230000895F894FFCF91
:104236000501540100000001520154010455010119
:1042460052015301000000045901FFFFD90128085B
:10425600140A321EF519251AFA19F819F91901F472
:0E426600F5F6F7313332946697C6000000007B
:00000001FF
