:100000000C949D040C94E4040C94E4040C94E40417
:100010000C94E4040C94E4040C94E4040C94E404C0
:100020000C94E4040C94E4040C944B210C941D22D5
:100030000C9484180C94E4040C94E4040C94E404EC
:100040000C94E4040C94E4040C94E4040C94E40490
:100050000C94E4040C94F8180C94E4040C94E40458
:100060000C94E4040C94E4040C94E4040C94E40470
:100070000C94E4040C94E4040C94E4040C94E40460
:100080000C94E4040C94E4040C94E4040C94E40450
:100090000C94E4040C94E4040C94E4040C94E40440
:1000A0000C94E4040C94E4040C94E4044106430628
:1000B0004E064506470649064B064D0650065206B3
:1000C00054065F06560658065A065C065E0661062A
:1000D000A50EA50ED70ED70E240F62106210621067
:1000E000440FE10FF20FF20F5210621062105B101A
:1000F000E010E010F210F210E910F210F210F2101D
:10010000E010E010EE10F210F210EE108A22B12290
:10011000A323B122A323FD222023A3237623852317
:10012000165C14001A000800150017001C001800C7
:100130000C00120013002A002B0004001600070018
:1001400009000A000B000D000E000F00000028003F
:10015000E10000001D001B00060019000500110051
:10016000100036003700E5002F61E300E2000000D8
:100170002C0000002C410000E600025130713E00CE
:1001800001001E001F002000210022002300240087
:1001900025002600270001000100010001000100E8
:1001A000010001005000520051004F00000001000A
:1001B00001000000AA00A800A90001000100010040
:1001C00001002D002E0001000100010001000000CF
:1001D0000100000001000000010001000100010019
:1001E0003A003B003C003D003E003F004000410023
:1001F00042004300440045000100010001000100ED
:100200000100010001003300340032000000010051
:100210000100000064000100010001000100010074
:100220000100380001000100010001000100000090
:100230000100000001000000010001000100005C5D
:1002400044454255473A2064697361626C65642E87
:100250000A0044454255473A20656E61626C656408
:100260002E0A000A002530313662003A200025307F
:100270003258000A722F632030313233343536372A
:1002800038394142434445460A000A002530325875
:1002900020006B6579626F6172645F7265706F7266
:1002A000743A20000A0025303258006B6579626F7D
:1002B0006172645F7365745F6C65643A20003F002F
:1002C000433E20004C25640A0074696D65725F72BC
:1002D000656164333228293A202530346C580A008D
:1002E0006B6579626F6172645F69646C653A202541
:1002F000580A006B6579626F6172645F70726F7427
:100300006F636F6C3A2025580A00686F73745F6BD7
:100310006579626F6172645F6C65647328293A2045
:1003200025580A000A092D20537461747573202D15
:100330000A004743433A20342E392E322041565288
:100340002D4C4942433A20312E382E3073766E20A0
:100350004156525F415243483A20617672350A0055
:100360004F5054494F4E533A204C55464120455822
:100370005452414B455920434F4E534F4C45204317
:100380004F4D4D414E4420343039360A00425549D4
:100390004C443A2022302E362E3435312D332D6701
:1003A0003830326335372D646972747922202830F1
:1003B000373A35313A3238204175672031372032AB
:1003C000303139290A005649443A203078464545AB
:1003D0004428456C6C696F7420506F77656C6C298C
:1003E000205049443A203078343034302865703415
:1003F0003029205645523A203078303030310A00CA
:10040000444553433A20412073696D706C65203434
:100410003025206B6579626F6172640A000A092DCC
:100420002056657273696F6E202D0A000A092D200F
:10043000436F6E736F6C65202D0A4553432F713ADD
:1004400009717569740A000A092D204D6167696395
:10045000202D0A443A094465627567204D6573731F
:1004600061676520546F67676C650A583A094D618A
:1004700074726978204465627567204D6F646520E9
:10048000546F67676C65202D2053686F77206B650C
:10049000797072657373657320696E206D61747213
:1004A000697820677269640A4B3A094B6579626F13
:1004B00061726420446562756720546F67676C657C
:1004C000202D2053686F77206B6579707265737388
:1004D000207265706F72740A4D3A094465627567DF
:1004E000204D6F75736520546F67676C650A563AC7
:1004F0000956657273696F6E0A533A0953746174D1
:1005000075730A433A0941637469766174652043DF
:100510006F6E736F6C65204D6F64650A46312D46B2
:1005200031303A0953776974636820746F204C61E5
:1005300079657220302D392028463130203D204CFD
:1005400030290A302D393A09537769746368207469
:100550006F204C6179657220302D390A475241561F
:10056000453A0953776974636820746F204C617948
:10057000657220302028616C7465726E6174652923
:100580000A423A094A756D7020746F20426F6F7489
:100590006C6F616465720A4553433A094A756D7020
:1005A00020746F20426F6F746C6F616465722028D5
:1005B000616C7465726E617465290A453A095072FE
:1005C000696E7420454550524F4D205365747469CF
:1005D0006E67730A4253504143453A09436C656163
:1005E0007220454550524F4D0A000A002575002ED5
:1005F0006E6B726F3A20000A002575002E737761CA
:10060000705F6261636B736C6173685F6261636B7F
:1006100073706163653A20000A002575002E7377B8
:1006200061705F67726176655F6573633A20000A87
:10063000002575002E6E6F5F6775693A20000A000D
:100640002575002E737761705F72616C745F7267DD
:1006500075693A20000A002575002E737761705F76
:100660006C616C745F6C6775693A20000A002575CF
:10067000002E636170736C6F636B5F746F5F636F89
:100680006E74726F6C3A20000A002575002E737725
:1006900061705F636F6E74726F6C5F636170736CB7
:1006A0006F636B3A20000A0025303258006B657981
:1006B0006D61705F636F6E6669672E7261773A2055
:1006C000000A002575002E6D6F7573653A20000ACB
:1006D000002575002E6B6579626F6172643A2000A7
:1006E0000A002575002E6D61747269783A20000A3F
:1006F000002575002E656E61626C653A20000A0067
:10070000253032580064656275675F636F6E666995
:10071000672E7261773A20000A00257500646566CD
:1007200061756C745F6C617965723A20003F000AF4
:100730006D6F7573653A206F66660A000A6D6F7596
:1007400073653A206F6E0A000A6B6579626F617299
:10075000643A206F66660A000A6B6579626F61729F
:10076000643A206F6E0A000A6D61747269783A20EB
:100770006F66660A000A6D61747269783A206F6E5E
:100780000A000A64656275673A206F66660A000AA5
:1007900064656275673A206F6E0A000A0A4A756DD1
:1007A00070696E6720746F20626F6F746C6F616424
:1007B00065722E2E2E2000433E2000436C65617230
:1007C000696E6720454550524F4D0A006565636F5D
:1007D0006E6669673A0A005B735D004B6579626F0C
:1007E0006172642073746172742E0A005B575D003D
:1007F0005B535D005B525D005B445D005B435D00ED
:100800000403300000000A0365007000340030006B
:1008100000001C0345006C006C0069006F00740050
:10082000200050006F00770065006C006C00000035
:100830000403090409025B00030100A0FA09040093
:1008400000010301010009211101000122400007FC
:1008500005810308000A09040100010300000009E2
:1008600021110100012236000705820320000A0938
:1008700004020002030000000921110100012222EC
:100880000007058303200001070503032000011270
:1008900001100100000008EDFE40400100010203CC
:1008A000010631FF0974A1010975150026FF0095A5
:1008B00020750881020976150026FF00952075082D
:1008C0009102C005010980A10185031601002603DC
:1008D000001A81002A8300751095018100C0050C63
:1008E0000901A1018504160100269C021A01002AB3
:1008F0009C02751095018100C005010906A1010542
:100900000719E029E7150025019508750181029571
:1009100001750881010508190129059505750191E1
:10092000029501750391010507190029FF1500269D
:10093000FF00950675088100C00011241FBECFEF8F
:10094000DAE0DEBFCDBF04B603FE27C08091E4012C
:100950009091E501A091E601B091E7018730904BBD
:10096000A740B04BD1F41092E4011092E50110922F
:10097000E6011092E70114BE84B7877F84BF0FB6EB
:10098000F894A8958091600088618093600010922F
:1009900060000FBEE0E0F8E3099511E0A0E0B1E0EF
:1009A000E8E5F8E402C005900D92AC32B107D9F742
:1009B00021E0ACE2B1E001C01D92A43EB207E1F734
:1009C0000E94661E0C942A240C940000FF93EF935F
:1009D000E0912C01F0912D01309709F00995EF91EC
:1009E000FF910895FC018591803011F0EFDFFBCF7E
:1009F0000895FF27E0E230E247FF0CC0419597FFE2
:100A000009C0EDE26095709580959095611D711D0E
:100A1000811D911D27FF02C0219530E350E2AA27D6
:100A2000660F771F881F991FAA1FA41710F0A41B19
:100A300063955A95A9F7AA3008F0A95FA05DAF9316
:100A4000F395611571058105910541F7ED3211F4BA
:100A5000EF93F395F21718F43F93F395FBCF8F9133
:100A6000B5DFFA95E1F70895E991F9918591803024
:100A700021F0853219F0AADFF9CF089520E0E8943B
:100A800055915532C1F3503311F4689455915A334E
:100A900048F4505390F3220F022E220F220F200D04
:100AA000250FF4CF0EF4219589919991533619F3BE
:100AB000533729F1533559F1BC0188279927E89418
:100AC0005C3621F48991999168945591543639F4A2
:100AD00046EF7EF077FF0DC08FEF9FEF0AC05537CE
:100AE0004AE039F0583540E121F0523642E009F051
:100AF0000895FF93EF937DDFEF91FF91B7CFFF93C1
:100B0000EF93FC0181918030B9F360DFFBCFFF935D
:100B1000EF9368DFF1CFDF93CF93CDB7DEB72596A4
:100B2000A3DFCF91DF9108950C945E090C945F09C7
:100B30000C949E050C94E20581E0089581E00895EF
:100B40001F93CF93DF9300D000D01F92CDB7DEB7B5
:100B500049835A832091540189819A81211112C0BD
:100B6000662349F00E940516182F682F89819A8103
:100B70000E94AA1503C00E94D915182F69817A8195
:100B8000812F04C00E94051669817A810F900F9011
:100B90000F900F900F90DF91CF911F910C94EF0663
:100BA000FC01408151816281738184810C94A00594
:100BB0000E946A17811102C00E94F0170C949405DC
:100BC0000C94960508950C949A0508950E94D010EF
:100BD0000E94E5052FEF84E39CE021508040904087
:100BE000E1F700C000000C941E190F931F93CF93E0
:100BF000DF938C010E94D005EC01B8010E9498059A
:100C00008823D9F0B801CE010E944E0B8823A9F0A9
:100C1000C531FCE5DF0708F088C0C2308CE5D80795
:100C200070F4C115ECE5DE0709F05BC0F801C28184
:100C3000CC2309F4CAC00E94E605C0E0C6C0F80192
:100C40008281882309F450C00E946A17811102C072
:100C50000E94F0170E947D1790E09093D601809338
:100C6000D501FE01E350FC45E231F10530F4EA5ACA
:100C7000FF4F8091D5010C94E2238091D5018160D2
:100C800027C0826025C0846023C0806121C080624B
:100C90001FC080641DC080681BC08460886018C04D
:100CA0008E7F16C08D7F14C08B7F12C08F7E10C0C8
:100CB0008F7D0EC08F7B0CC08F770AC08B7F877FA4
:100CC00007C087FB222720F991E0922790FB87F944
:100CD0008093D5018091D5010E9481170E94D01088
:100CE000ACCFC130DC4539F0C801DF91CF911F9105
:100CF0000F910C949C05F801C281CC2309F465C0C6
:100D00008091C001C82FC095C170C0FB80F980934D
:100D1000C001CC2329F082E592E00E94F2048DCF3D
:100D200080E492E00E94F20450C0CC3D8CE5D807EC
:100D300039F4F801C281CC2309F447C080E00DC02A
:100D4000CD3DECE5DE0760F0CD3D8CE5D80791F5B3
:100D5000F801C281CC23C9F182E00E940E1F6DCF41
:100D6000C631DC4509F60E948516282FF8018281DC
:100D70004091000150910101882379F02A7A91E095
:100D800009F490E090932E01911102C069E201C034
:100D900065E3CA010E9424180AC080912E018111C6
:100DA00002C069E201C065E3CA010E9426180E94E0
:100DB000D11643CFCE3DDC4509F096CFF801C28174
:100DC000CC2319F00E94F01738CF8C2FDF91CF91F0
:100DD0001F910F91089580E090E0089508959CE0A0
:100DE000799FF001112490E3899FE00DF11D1124FA
:100DF000E60FF11DEE0FFF1FE05EFE4F859194910F
:100E00000895880F991FFC01ED59FD4F859194912C
:100E10000895CF93DF930E94EF060E94BE08EC0175
:100E2000811520E59207F0F5811530E4930708F06D
:100E300024C1883E910500F5803E910508F09AC1D5
:100E4000883A910570F4853A910508F09FC0813089
:100E5000910509F48FC108F440C1049708F08AC1D4
:100E60003CC18F3B910508F49CC0803C910508F47F
:100E700034C1805C9109F4C0811540E2940758F4B4
:100E8000C11581E0D80708F075C1C03FD10508F44D
:100E900024C1D0656FC1811520E3920708F0E4C03A
:100EA0009F70DEC0811535E5930708F044C08115B9
:100EB00044E5940708F0F8C0C11582E5D80708F5A5
:100EC000C11521E5D20708F0DBC08C2F837021E02B
:100ED00030E002C0220F331F8A95E2F73C68CE0152
:100EE00074E0969587957A95E1F78370382BCF70EB
:100EF000C695C69580E2C89FE0011124C22BD32B72
:100F000039C12C2F26952695CE0183709927C115BE
:100F1000D34508F0BAC040E2249F90011124C1E0FB
:100F2000D0E002C0CC0FDD1F8A95E2F72C2B3D2BC1
:100F3000E901DC681FC1811549E59407A0F4C115DA
:100F400088E5D80708F0B5C0C11526E5D20708F036
:100F5000C4C08C2F0E943B098F71C82FD0E0DC2FBA
:100F6000CC27D06207C181153AE5930708F4A6C0E3
:100F700090568115904208F0B0C08D2F8F710E945D
:100F80003B09DD27D0628F71D82BF4C0853A9105DB
:100F900009F4A6C0863A910509F0A5C0C2E8D0E4DC
:100FA000E9C0883A910509F4A1C0893A910509F48C
:100FB000A0C08A3A910509F49FC08B3A910509F4C3
:100FC0009EC08C3A910509F49DC08B3B910509F4B4
:100FD0009CC08C3B910509F49BC08D3A910509F4A6
:100FE0009AC0803B910509F499C08E3A910509F4A5
:100FF00098C08F3A910509F497C0813B910509F497
:1010000096C0823B910509F495C0833B910509F494
:1010100094C0843B910509F493C0853B910509F484
:1010200092C0863B910509F491C0873B910509F474
:1010300090C0883B910509F48FC0893B910509F464
:101040008EC08D3B910509F48DC08E3B910509F44E
:101050008CC08A3B910509F48BC0C0E0D4E48AC0FF
:101060000E940107EC0186C09927D3FF03C0EC0161
:10107000D86C80C0EC01D06C7DC0DF70D06A7AC0C3
:10108000DC2FCC27C16FD06A75C040E2249F90014D
:101090001124C1E0D0E002C0CC0FDD1F8A95E2F739
:1010A000C22BD32BDA6866C0D82FCC27C46FD06A86
:1010B00061C0DC2FCC27C06FD06A5CC08F700E94EB
:1010C0003B0994E0D695C7959A95E1F7CF70D0E0AB
:1010D000DC2FCC27D069C82B4DC0C0E0D0E04AC07F
:1010E000C1E8D0E447C0C3E8D0E444C0C2EED4E4D1
:1010F00041C0C9EED4E43EC0CAEED4E43BC0C5EB67
:10110000D4E438C0C6EBD4E435C0C3EBD4E432C079
:10111000C4EBD4E42FC0C7EBD4E42CC0CCECD4E4B3
:1011200029C0CDECD4E426C0C3E8D5E423C0CAE886
:10113000D5E420C0C2E9D5E41DC0C4E9D5E41AC095
:10114000C1E2D6E417C0C3E2D6E414C0C4E2D6E4D8
:1011500011C0C5E2D6E40EC0C6E2D6E40BC0C7E2B9
:10116000D6E408C0CFE6D4E405C0C0E7D4E402C0AA
:10117000CAE2D6E4CE01DF91CF910895823891057D
:1011800049F1B0F48133910509F458C048F489322B
:10119000910509F44EC08A32910509F454C00895AE
:1011A0008533910509F440C08933910599F008957C
:1011B000833E910529F138F4803E910591F0823EFD
:1011C0009105A1F00895863E9105F9F0873E9105BD
:1011D00031F108952091D50120FD3AC021FD38C09C
:1011E00008958091D50180FD35C032C08091D50130
:1011F00082FF32C08091D50184FD30C083EE39C0BA
:101200008091D50182FD28C0F5CF8091D50183FF63
:1012100027C08091D50184FD21C087EE2AC080912E
:10122000D50183FD1DC0F5CF8091D50185FD1AC084
:101230001BC08091D50185FD17C014C08091D501D8
:1012400086FD14C015C08091D50186FD11C00EC069
:1012500080EE0FC089E30DC082EE0BC080E009C0B4
:1012600086EE07C089E205C085E303C08AE201C0BB
:1012700081E390E008959091D50192FF0DC0282F51
:101280002871283019F4877F846006C0282F2471C4
:10129000243011F48B7F886093FF0DC0282F2871B4
:1012A000283119F4877E846106C0282F24712431E7
:1012B00011F48B7E886194FD877E089508950895CA
:1012C000E82FF0E0EE0FFF1FE15DFE4F808191817E
:1012D0000895CF92DF92EF92FF920F931F93CF93D7
:1012E000DF9383E792E00E94F2048FE2E82E81E030
:1012F000F82EC0E0D0E09EE6C92E92E0D92E05E699
:1013000012E0DF93CF93DF92CF920E948B058BE6A2
:1013100092E00E94F204F701819191917F010E9475
:1013200050179F938F931F930F930E948B0583E613
:1013300092E00E94F20421968DB79EB708960FB6F0
:10134000F8949EBF0FBE8DBFC430D105D1F6DF919A
:10135000CF911F910F91FF90EF90DF90CF90089564
:10136000A9E1B1E041E050E024E02A0F8D91E82F9F
:10137000E295EF70F0E031A18F70BA0102C0660F04
:10138000771F8A95E2F7CB01962F9095932391A32F
:1013900092A1892B82A32A13E9CFADE0B1E041E00D
:1013A00050E02CE02A0F8D91E82FE295EF70F0E0ED
:1013B00031A18F70BA0102C0660F771F8A95E2F7DC
:1013C000CB01962F9095932391A392A1892B82A371
:1013D0002A13E9CF10923801109237011092300190
:1013E00010922F0110923A0110923901109232019D
:1013F0001092310110923C0110923B011092340185
:101400001092330110923E0110923D01109236016C
:101410001092350184E00E94A60A0C94D8055F92D0
:101420006F927F928F929F92AF92BF92CF92DF92F4
:10143000EF92FF920F931F93CF93DF9309E111E097
:10144000A7E3B1E0612CEE24E394F12C5D018D90D3
:101450009C90119711961C921E92E80189918E0121
:10146000E82FE295EF70F0E091A18F70A70101C025
:10147000440F8A95EAF7892F842B81A382A1542EE9
:101480005094852182A3D0EADA95F1F78DE0C82E39
:1014900081E0D82E80E090E0E60179906E01272D62
:1014A00022952F7030E0E90168A12D913C911197B0
:1014B00070E0D72DDF7002C075956795DA95E2F779
:1014C00060FD08C0B701082E02C0660F771F0A949E
:1014D000E2F702C060E070E0262B372B11963C93B8
:1014E0002E9301968C309105B9F681A1D52DD82384
:1014F000D1A382A1482B42A3129681E0F50120815D
:1015000031818216930609F480E0682AF1E0AF3356
:10151000BF0709F09BCF262D44E06FE271E087E31F
:1015200091E00E94A70A0E94E005862DDF91CF91ED
:101530001F910F91FF90EF90DF90CF90BF90AF90F1
:101540009F908F907F906F905F9008950895FF9285
:101550000F931F93CF93DF93F82E092F162FD72FBA
:10156000C42F222349F081E0809341010E94B618E4
:101570009093400180933F01809141018823D9F0ED
:1015800080913F01909140010E94CE18069798F0FB
:10159000EF2DF02FA12FBD2F80E090E04C2F50E0D9
:1015A0008417950734F4219131912D933D93019641
:1015B000F7CF10924101DF91CF911F910F91FF90D2
:1015C00008950F931F93CF93DF93C62FD42F022F2D
:1015D000FC0182818823C9F0609344010E94B618FF
:1015E000909343018093420180E28C0F883008F091
:1015F00050C0C77081E001C0880FCA95EAF7DF913B
:10160000CF911F910F910C94650E10914401161308
:1016100030C080914201909143010E94CE18883CD5
:10162000910538F5C0E2CD0F1D17B9F080E2810FAA
:10163000883040F4177081E001C0880F1A95EAF7EE
:101640000E946C0EC83048F481E09D2F977001C055
:10165000880F9A95EAF70E94650E802F0E94520E1D
:10166000C830B8F4D77081E001C0880FDA95EAF786
:101670000AC080E28C0F883060F4C77081E001C03E
:10168000880FCA95EAF7DF91CF911F910F910C94C3
:101690006C0EDF91CF911F910F9108959C01CB01AA
:1016A000203F4CE53407F9F078F4283DFCE53F078E
:1016B000B9F0293D4CE5340711F1273D3C4531F5A2
:1016C00026E241EE61EE1EC0223FFCE53F0799F0A5
:1016D00070F0233F3C45D1F427E245EE66EE12C0A0
:1016E00027E245EE0EC026E241EE60EE0BC027E297
:1016F00045EE64EE07C026E241EE62EE03C028E24A
:1017000041E065EE0E94E10A80E00895FC018281DB
:10171000882319F010924401089581E00895909370
:101720004A01809349010895E0914901F0914A01ED
:10173000309721F00190F081E02D099480E0089528
:10174000EF92FF920F931F93CF93DF93E0914901A4
:10175000F0914A013097B1F18C010280F381E02DC4
:1017600009958091C00182FF2DC080FF04C082E9ED
:1017700092E00E94F204E80118E08CE8E82E82E092
:10178000F82E8091C00180FF0BC088811F928F933B
:10179000FF92EF920E948B050F900F900F900F9089
:1017A000115021961111EDCF8091C00180FF0AC028
:1017B0008AE892E0DF91CF911F910F91FF90EF9017
:1017C0000C94F204DF91CF911F910F91FF90EF9055
:1017D000089520914701309148018217930771F0D5
:1017E0009093480180934701E0914901F0914A01AB
:1017F000309721F00680F781E02D0994089520911B
:101800004501309146018217930771F0909346018C
:1018100080934501E0914901F0914A01309721F010
:101820000084F185E02D0994089585B7806885BF0F
:1018300085B7806885BF0895089508950C941D0CA0
:1018400008950C94200C0E94150C0E941C0C0C9402
:101850001E0C81E008950E94AD180E94B0090E94FC
:1018600042190C94210CCF93C82F8091C00182FFA4
:101870001EC080FF04C08BEA92E00E94F2048091B7
:10188000C00180FF0CC01F92CF9386EA92E09F9325
:101890008F930E948B050F900F900F900F90809167
:1018A000C00180FF04C084EA92E00E94F2048C2F01
:1018B000CF910C94E3054F925F927F928F929F920B
:1018C000AF92BF92CF92DF92EF92FF920F931F934E
:1018D000CF93DF93CDB7DEB72A970FB6F894DEBF6C
:1018E0000FBECDBF0E940F0A0E94290C811111C0AA
:1018F0008FEF89838A831B820E94B6188160782FBC
:101900009D838C8349815A816B818D810E94170D43
:1019100057C09CE4C92E91E0D92E00E010E0AA2423
:10192000A394B12C702E802F0E9460094C01F60107
:10193000419051906F01482659264114510431F4C9
:101940000F5F1F4F0430110569F7D2CF8091C0019E
:1019500081FD0E94690920E030E07501022E02C07D
:10196000EE0CFF1C0A94E2F7C70184219521892B14
:1019700009F12E837F828E209F2091E0892809F42F
:1019800090E098870E94B6188160782F9A8789879F
:101990004E815F8168858A850E94170D000F111F97
:1019A000F801E45BFE4F80819181E826F926F182FF
:1019B000E08206C02F5F3F4F2C30310571F6C0CF5B
:1019C00010914B010E94940B1817D9F00E94940BB0
:1019D00080934B012A960FB6F894DEBF0FBECDBFA1
:1019E000DF91CF911F910F91FF90EF90DF90CF90FB
:1019F000BF90AF909F908F907F905F904F900C948E
:101A0000330C2A960FB6F894DEBF0FBECDBFDF9120
:101A1000CF911F910F91FF90EF90DF90CF90BF90EB
:101A2000AF909F908F907F905F904F900895CF934D
:101A3000DF93CDB7DEB72B970FB6F894DEBF0FBE9E
:101A4000CDBF4F83588769877A878B87DE011196D0
:101A500086E0FD0111928A95E9F785E0FE0137964F
:101A600001900D928A95E1F749815A816B817C81C1
:101A70008D819E810E947A132B960FB6F894DEBF5B
:101A80000FBECDBFDF91CF910895FC018081918180
:101A90000E9446160895CF93DF931F92CDB7DEB70D
:101AA000882309F4CFC0682F8CEF860F813A70F439
:101AB000862F69830E94DE1B69818111C3C08091DA
:101AC0000001909101010E9424180CC080E2860F51
:101AD000883068F4677081E001C0880F6A95EAF782
:101AE0000E9488160F90DF91CF910C94D1168BE550
:101AF000860F833088F4653A29F0663A31F083E83E
:101B000090E005C081E890E002C082E890E00F908C
:101B1000DF91CF910C94E90B88E5860F873108F0AF
:101B200091C0683A09F445C0693A09F445C06A3A77
:101B300009F445C06B3A09F445C06C3A09F445C054
:101B40006B3B09F445C06C3B09F445C06D3A09F4A0
:101B500045C0603B09F445C06E3A09F445C06F3A90
:101B600009F445C0613B09F445C0623B09F445C036
:101B7000633B09F445C0643B09F445C0653B09F487
:101B800045C0663B09F445C0673B09F445C0683B66
:101B900009F445C0693B09F445C06D3B09F445C0F3
:101BA0006E3B09F445C06A3B09F445C080E090E013
:101BB00044C082EE90E041C089EE90E03EC08AEEE3
:101BC00090E03BC085EB90E038C086EB90E035C0FC
:101BD00083EB90E032C084EB90E02FC087EB90E085
:101BE0002CC08CEC90E029C08DEC90E026C083E8FE
:101BF00091E023C08AE891E020C082E991E01DC015
:101C000084E991E01AC081E292E017C083E292E099
:101C100014C084E292E011C085E292E00EC086E238
:101C200092E00BC087E292E008C08FE690E005C02A
:101C300080E790E002C08AE292E00F90DF91CF91BE
:101C40000C94FF0B0F90DF91CF910895882349F1F9
:101C5000682F8CEF860F813A38F4809100019091C3
:101C600001010E9426180CC080E2860F883050F4D3
:101C7000677081E001C0880F6A95EAF70E948E16AE
:101C80000C94D1168BE5860F833020F480E090E031
:101C90000C94E90B685A673120F480E090E00C94D2
:101CA000FF0B0895CF93C82F0E944B0DC93349F401
:101CB0002FEF87EE93E0215080409040E1F700C085
:101CC00000008C2FCF910C94260E882321F00E94C7
:101CD00088160C94D1160895882321F00E948E1640
:101CE0000C94D1160895BF92CF92DF92EF92FF929B
:101CF0000F931F93CF93DF937C01062FC72FFC0117
:101D0000158112951F70D281D1110E94A5160E94D3
:101D10007E16882379F0DD2369F080E2800F883019
:101D200048F082E00E941C170E947E1691E0B82EB7
:101D3000B92601C0B12CCC2EC2948FE0C822D12C80
:101D4000F601E859FF4F0C94E2238C2F807FCF706F
:101D5000882311F0C295C07FDD2399F0CC2309F4CC
:101D60008CC180E2800F883010F0011104C08C2FEC
:101D70000E94881603C08C2F0E9498160E94D116CC
:101D80007CC1802F0E94260ECC2309F49BC180E2E7
:101D9000800F883010F0011104C08C2F0E948E1625
:101DA00003C08C2F0E949E160E94D1168BC18C2FCF
:101DB000807FCF70803211F0C295C07F002319F070
:101DC0000130C9F022C0DD2371F0112341F0113040
:101DD00031F40E94B8168C2B0E94BE1673C10E946B
:101DE000B8168C2B1DC0112319F0113009F46AC1EB
:101DF0000E94C71625C0DD2321F0163008F062C10D
:101E00000EC0153008F05EC11BC0DD2361F0112348
:101E100031F0F701858180FF30C18F7085838C2F71
:101E20000E94650E4FC1112359F0093309F036C1E4
:101E3000FFEF27EE83E0F15020408040E1F72CC116
:101E40008C2F0E946C0E3EC18C2F869586958370D8
:101E500090E0009719F0019761F034C1DD2321F083
:101E6000802F9C2F937002C080E090E00E94E90BCD
:101E700034C1DD2321F0802F9C2F937002C080E0BD
:101E800090E00E94FF0B29C18C2F837009F049C09C
:101E9000D1111FC1402F429546954770440F440F02
:101EA000602F6F70862F90E0A0E0B0E0042E04C099
:101EB000880F991FAA1FBB1F0A94D2F704FF10C0F6
:101EC0000FE010E020E030E004C0000F111F221FDF
:101ED000331F4A95D2F7009510952095309503C091
:101EE00000E010E09801C695C695C370D0E0BC0133
:101EF000CD01602B712B822B932BC230D10559F071
:101F0000C330D10559F0219719F00E94BF14E1C0E8
:101F10000E94AD14DEC00E94D114DBC00E94AB143D
:101F2000D8C0DD2319F08C2F817001C086958823DD
:101F300009F4CFC0402F429546954770440F440F97
:101F4000602F6F70862F90E0A0E0B0E0042E04C0F8
:101F5000880F991FAA1FBB1F0A94D2F704FF10C055
:101F60000FE010E020E030E004C0000F111F221F3E
:101F7000331F4A95D2F7009510952095309503C0F0
:101F800000E010E09801C695C695C370D0E0BC0192
:101F9000CD01602B712B822B932BC230D10559F0D0
:101FA000C330D10559F0219719F00E94851591C0D1
:101FB0000E9473158EC00E9497158BC00E94E61474
:101FC00088C0CF70DD2339F08C2F0E940C15802F34
:101FD0000E94650E7EC0802F0E946C0E8C2F0E9486
:101FE0002D1577C0023F01F128F4003F41F0013F79
:101FF000A1F03FC0033FF9F0043F39F13AC0DD23BF
:1020000041F0153008F05EC08C2F8F710E94521580
:1020100059C0163008F056C0F7CFDD2339F08C2FA9
:102020008F710E940C154EC0DD23C9F38C2F8F7168
:102030000E942D1547C0DD2329F08C2F8F710E943F
:10204000F71440C00E94F2143DC0DD2349F0CF7167
:102050008C2F0E940C1563E08C2F0E94071732C052
:1020600081E00E941C17123068F182E00E941C1768
:1020700029C0DD2331F0112391F2802F0E944B0DF6
:1020800021C0112399F2093349F49FEFE7EEF3E001
:102090009150E040F040E1F700C00000802F0E9426
:1020A000260E10C04C2F4F70602FC7010E94EB0608
:1020B0000E941E1412C04C2F4F70602FC7010E9447
:1020C000EE060BC028E0C21AD10884E0C816D1047D
:1020D00020F40E94940B0E94E305BB20D1F00E94E3
:1020E0007A1680FD16C0F70112820E9474160E94B3
:1020F0000C15C7010E9493100E947416DF91CF91B6
:102100001F910F91FF90EF90DF90CF90BF900C94B4
:102110002D15DF91CF911F910F91FF90EF90DF90E0
:10212000CF90BF9008950F931F93CF93DF93EC014F
:10213000888199812B813C81232BB9F09F3F11F439
:102140008F3F99F0CE010E94F505882371F06881D8
:1021500079818A810E9451168C010E94A9150E94E2
:10216000AA14B801CE010E94730EDF91CF911F9186
:102170000F9108950E94A5160E94B5160E94D116CF
:1021800080E090E00E94E90B80E090E00C94FF0B6F
:1021900080910001909101010E9428180C94BA10BE
:1021A0000E9495160C94C810E92FE295EF70F0E0AC
:1021B0003297EE30F105B0F4E858FF4F0C94E2236B
:1021C000803F91F018F4883E68F40EC0843F51F4CB
:1021D0000BC0883E48F0813F29F406C093FB882756
:1021E00080F9089580E0089581E008950E944616E0
:1021F0000E94D4100895CF93DF9300D000D01F9297
:10220000CDB7DEB70F900F900F900F900F90DF912A
:10221000CF910895CF93DF9300D000D000D0CDB7F9
:10222000DEB726960FB6F894DEBF0FBECDBFDF91A6
:10223000CF9108951F93CF93DF93C091550116E07E
:1022400080915601C81799F0D0E01C9FF0011D9FA6
:10225000F00D1124E95AFE4F408151816281738152
:10226000848195810E940A112196C770E9CFDF9180
:10227000CF911F91089540918701509188016091FD
:10228000890170918A0180918B0190918C010C944D
:102290000A1180918C0182958F7009F054C0809151
:1022A0008901882309F44FC080915501A0915601FE
:1022B000609187017091880140918A0150918B0152
:1022C000B6E08A1709F43FC090E041155105C1F10D
:1022D0007F3F11F46F3FA1F1B89FF001B99FF00D5E
:1022E0001124E95AFE4F218172132AC02081621302
:1022F00027C02281211124C023813481241735076E
:1023000010F421503109241B350B283C3105C0F451
:1023100020918C012F70206120938C0126E0289F52
:10232000F001299FF00D1124E45AFE4F80818F7037
:102330008061808387E891E00E9493100C941A11C9
:1023400001968770BECF0895CF92DF92EF92FF92F1
:102350000F931F93CF93DF93CDB7DEB762970FB67E
:10236000F894DEBF0FBECDBF8C0185E0F801DE0121
:102370001D9601900D928A95E1F7D8014C91119626
:102380005C91119712966C9112971396CD90DC90F8
:102390001497309187017091880180918A01909102
:1023A0008B01009709F46BC17F3F19F43F3F09F49B
:1023B00066C1E0908901EE2009F4C0C020918C0133
:1023C000C816D90628F0F601E81BF90BCF0104C0A6
:1023D000809590958C0D9D1DFF24F394883C91056C
:1023E00078F0F12C207F09F0C6C07C2DD98AC88AEC
:1023F00089890E94FB1087E891E00E949310B1C088
:10240000822F807F09F046C0751314C0341312C0A8
:10241000611110C02F70206120938C010E943B112C
:1024200087E891E00E94931080918C01D801159665
:102430008C932EC0CD2819F15F3F11F44F3FF9F076
:10244000F62E61111CC0809155012091560136E095
:10245000821709F45AC090E0389FF001399FF00DBF
:102460001124E95AFE4F7181571306C0708147133A
:1024700003C07281711103C001968770E9CFF62EF7
:10248000662309F427C180918C01816080938C01BF
:10249000F12C20C1751308C0341306C0611104C0AB
:1024A00080918C01D801C3C04D875E878D859E8544
:1024B0006A8B0E94F6106A898823E1F16623D1F1C4
:1024C00020918C01822F82958F7090E0029774F09A
:1024D000809187019091880198878F831986DB8688
:1024E000CA862C87CE0107960E94931086E0F801D9
:1024F000A7E8B1E001900D928A95E1F70E94491199
:102500000E943B11FF24F394E5C04D875E878D85C3
:102510009E850E944616292F22952F7030E022308A
:1025200031050CF0CBC09F7009F0C5C0805E8830CB
:1025300008F4D0C0C8010E949310E4CFC816D90691
:1025400008F453C0F601E81BF90BCF01883C910554
:1025500008F450C0F12C7C2DD98AC88A89890E9440
:10256000FB10E7E8F1E086E0DF011D928A95E9F7CC
:102570000E943B11AFC0751314C0341312C0611117
:1025800010C080918C01F8018583C8010E949310CE
:1025900086E0E7E8F1E0DF011D928A95E9F7FE2C7D
:1025A00099C04D875E878D859E856A8B0E94F61047
:1025B0006A89882309F4BECF662309F4BBCF209132
:1025C0008C01822F82958F7090E002970CF48ECF51
:1025D00080918701909188019A8389831B82DD8293
:1025E000CC822E83CE0101967FCF809590958C0D65
:1025F0009D1DACCFF62E662309F49CCF75132EC01B
:1026000034132CC020918C0120FD1FC0822F829595
:102610008F70D9F0D80115962C9315978F3049F00B
:102620008F5F982F9295907F822F8F70892B1596B0
:102630008C93C8010E94931086E0F801A7E8B1E0EE
:1026400001900D928A95E1F793CF86E0F801A7E813
:10265000B1E001900D928A95E1F73CC04D875E870D
:102660008D859E850E94F610811140CF80918C014E
:10267000816080938C01C8010E9493102BC0662357
:1026800009F458CF4D875E878D859E850E94F61090
:10269000F82E882309F44ECF86E0F801A7E8B1E0D0
:1026A00001900D928A95E1F787E891E00E94450D2F
:1026B0000E9449115DCF811139CF0CC02430310502
:1026C0000CF038CF9F7009F431CFF8019581907FDD
:1026D00009F02CCF8F2D62960FB6F894DEBF0FBE97
:1026E000CDBFDF91CF911F910F91FF90EF90DF90C1
:1026F000CF9008951F93CF93DF93CDB7DEB72C977C
:102700000FB6F894DEBF0FBECDBF4F8358876987E1
:102710007A878B879C87CE0107960E94A411882315
:1027200069F08F8198852A853B85232BF1F19F3FA6
:1027300009F063C08F3F09F060C037C086E0FE013A
:102740003796DE01119601900D928A95E1F76F811F
:102750007885EA85FB85309741F17F3F11F46F3F23
:1027600021F12091560130E0C90101968770992727
:102770004091550150E08417950709F447C06983DB
:102780007A83FD83EC8396E0929FD001939FB00DF6
:102790001124A95ABE4FFE01319601900D929A95CF
:1027A000E1F7809356010E941A1116E080915501BD
:1027B000909156018917C1F1189FC0011124895ABF
:1027C0009E4F0E94A411882379F1E09155011E9F2C
:1027D000F0011124E95AFE4F4081518162817381D9
:1027E000848195810E940A118091550190E00196A3
:1027F0008770992780935501D9CF4F815885698576
:102800007A858B859C850E940A11CFCF0E94D010BB
:102810001092560110925501E7E8F1E086E0DF01E1
:102820001D928A95E9F7C1CF2C960FB6F894DEBFBA
:102830000FBECDBFDF91CF911F910895EF92FF9210
:102840000F931F93CF93DF938C01892B09F46CC0F6
:10285000F12CEE24E394E8012196F8018491843769
:1028600040F4843008F051C0813081F0823019F199
:102870005BC0853709F444C0A8F19CE7980F9037F6
:1028800008F052C08F770E94260E41C00E5F1F4F86
:10289000FE01C49180E28C0F883048F4C7708E2D01
:1028A00001C0880FCA95EAF70E94A81614C08C2FA1
:1028B0000E944B0D2DC00E5F1F4FFE01C49180E2A0
:1028C0008C0F883058F4C7708E2D01C0880FCA95C0
:1028D000EAF70E94AE160E94D1161AC08C2F0E94F1
:1028E000260E16C00E5F1F4FFE01C491CC2381F04F
:1028F0008FE99FE00197F1F700C00000C150F6CFCB
:102900000E5F1F4FFE01F49003C00E944B0D8E011D
:102910008F2D882309F49FCFEFE9FFE03197F1F77E
:1029200000C000008150F5CFDF91CF911F910F9132
:10293000FF90EF90089508950C949B140E949C14AE
:102940006093AF017093B0018093B1019093B20195
:102950000C94BA1008950C949E140F931F93009139
:10296000AF011091B0012091B1013091B201602B03
:10297000712B822B932B1F910F910C949E140F930C
:102980001F930091AF011091B0012091B1013091DE
:10299000B20160237123822393231F910F910C9422
:1029A0009E140F931F930091AF011091B0012091DD
:1029B000B1013091B20160277127822793271F91BF
:1029C0000F910C949E1408950C94E3140E94E41447
:1029D0006093AB017093AC018093AD019093AE0115
:1029E0000C94BA1060E070E0CB010C94E6140F93E5
:1029F0001F9341E050E060E070E08A019B0104C059
:102A0000000F111F221F331F8A95D2F7C901B80189
:102A10001F910F910C94E6140F931F9341E050E027
:102A200060E070E004C0440F551F661F771F8A9551
:102A3000D2F78091AB019091AC01A091AD01B09122
:102A4000AE018A019B01082B192B2A2B3B2BC901B4
:102A5000B8011F910F910C94E6140F931F9341E05E
:102A600050E060E070E004C0440F551F661F771F00
:102A70008A95D2F740955095609570958091AB01FD
:102A80009091AC01A091AD01B091AE018A019B0182
:102A9000082319232A233B23C901B8011F910F9151
:102AA0000C94E6140F931F9341E050E060E070E057
:102AB00004C0440F551F661F771F8A95D2F7809177
:102AC000AB019091AC01A091AD01B091AE018A0132
:102AD0009B01082719272A273B27C901B8011F9105
:102AE0000F910C94E6140F931F930091AB0110917A
:102AF000AC012091AD013091AE01602B712B822B86
:102B0000932B1F910F910C94E6140F931F93009138
:102B1000AB011091AC012091AD013091AE01602369
:102B20007123822393231F910F910C94E6140F932A
:102B30001F930091AB011091AC012091AD01309138
:102B4000AE0160277127822793271F910F910C9464
:102B5000E61408952CE0929F800D1124A82FA695CD
:102B6000A695A695877051E001C0550F8A95EAF7A2
:102B700085E0A89FD001112420E030E070E0F90149
:102B8000EA0FFB1FE357FE4F4081CB01022E02C02C
:102B9000969587950A94E2F7817099278195842705
:102BA0008523842780832F5F3F4F2530310539F7F8
:102BB00008952CE0929F800D1124682F66956695EC
:102BC0006695982F977085E0689FB001112440E0CA
:102BD00050E080E0FA01E60FF71FE357FE4F208137
:102BE00030E0092E02C0369527950A94E2F721704D
:102BF0003327042E01C0220F0A94EAF7822B4F5F7D
:102C00005F4F4530510531F70895BF92CF92DF9263
:102C1000EF92FF920F931F93CF93DF938C01C0909D
:102C2000AF01D090B001E090B101F090B20180917D
:102C3000AB019091AC01A091AD01B091AE01C82A59
:102C4000D92AEA2AFB2ACFE1D0E0D701C6010C2E0F
:102C500004C0B695A795979587950A94D2F780FFFB
:102C600007C0BC2EB8018C2F0E940907019719F4E8
:102C7000219758F7B12C8B2DDF91CF911F910F9198
:102C8000FF90EF90DF90CF90BF900895CF93DF93A8
:102C9000EC010E940516BE010E940907DF91CF9149
:102CA00008951F93CF93DF93EB01909154019923E3
:102CB00021F0CB010E94461613C0882349F0CB01B6
:102CC0000E940516182F682FCE010E94AA1504C075
:102CD000CB010E94D915182FBE01812F0E94090730
:102CE000DF91CF911F9108958091B30185958595CE
:102CF000859508958091B301877008959091B301EF
:102D0000977081E009F480E008958091BF010895F3
:102D10009091BF01892B8093BF0108958095909178
:102D2000BF0189238093BF0108951092BF010895C8
:102D30009091BE01892B8093BE010895809590915A
:102D4000BE0189238093BE0108951092BE010895AB
:102D50009091BD01892B8093BD010895809590913C
:102D6000BD0189238093BD0108951092BD0108958E
:102D70008091B401089508950C94BB169091B4010C
:102D8000981721F08093B4010C94BC16089580919B
:102D9000B401882329F01092B40180E00C94BC1691
:102DA0000895E0910001F09101018091BF018083BD
:102DB000E0910001F091010190818091BE01892B89
:102DC0008083E0910001F091010190818091BD012B
:102DD000892B80838091B401882381F0E0910001E8
:102DE000F09101019081892B808380910001909165
:102DF00001010E94F21781110E94C7168091000103
:102E0000909101010C94A00B08950C94041798E084
:102E1000899F90011124262B2093B3010E940C1549
:102E20008091B3018595859585950C940517109231
:102E3000B30180E00C9405172091B30180958223A3
:102E40008093B301982F977079F430E0482F082EC3
:102E5000000C550B2417350739F085958595859518
:102E60000E942D150C941717089590932D018093AF
:102E70002C0108958295982F9C7C392F3695369594
:102E8000282F237344E0249FC0011124932F982BF3
:102E9000292F2A7A2695892F8575880F822B0895E8
:102EA0001F93CF93DF931F92CDB7DEB799830E9414
:102EB0003A17182F9981892F0E943A17212F30E055
:102EC000322F2227A901482BCA010F90DF91CF9101
:102ED0001F91089580E090E00E94F02321E08D3E54
:102EE0009E4F09F020E0822F089582E090E00C943C
:102EF000E82383E090E00C94E82384E090E00C94D5
:102F0000E823682F84E090E00C94F623AB01BC0129
:102F10008FE090E00C940824AB01BC0183E190E0C9
:102F20000C94082460E070E0CB010C948C1760E0F6
:102F300070E0CB010E9486170C9492176DEE7EEF25
:102F400080E090E00E94142460E082E090E00E9423
:102F5000F62360E083E090E00E94F6231092AF0138
:102F60001092B0011092B1011092B20160E084E0C1
:102F700090E00E94F62360E085E090E00E94F62356
:102F800060E086E090E00E94F6236FEF87E090E03B
:102F90000E94F62340E050E0BA0188E090E00E94F1
:102FA000082460E08DE090E00E94F62340E050E0CD
:102FB000BA0188E190E00E94082460E087E190E097
:102FC0000E94F62340E050E0BA018CE190E00E94BC
:102FD000082460E080E290E00E94F6230C949717AA
:102FE0000C949E17FC01329697E080E0915029F0F6
:102FF00021912223D9F38F5FF9CF08959C01FC0121
:1030000032969FEF80E04191461789F09F3F19F477
:10301000411101C0982F8F5F8630A9F79F3F39F08B
:10302000F901E90FF11D97FDFA956283089508955E
:10303000FC01329608962081261301C01082319639
:10304000E817F907C1F708950C94FE170C941818A7
:10305000029626E0FC0111922A95E9F70895089559
:103060000C942F180E9430188091DB01843049F1B4
:103070001092C10120E488E190E00FB6F894A89581
:10308000809360000FBE2093600080E00E94E30503
:103090000E94301883B7817F846083BF83B78160CB
:1030A00083BF7894889583B78E7F83BF0FB6F894DB
:1030B000A895809160008861809360001092600004
:1030C0000FBE089508950895CF930E9462180E943C
:1030D0000F0A0E946318C0E08C2F0E946009892BA0
:1030E00029F4CF5FC430C1F780E001C081E0CF9107
:1030F000089508950C9479180E94D0100E94940BA2
:103100000E94E3050C947A181F920F920FB60F924B
:1031100011248F939F93AF93BF938091C10181112D
:1031200013C08091D1019091D201A091D301B091AF
:10313000D4014196A11DB11D8093D1019093D2017C
:10314000A093D301B093D401BF91AF919F918F9180
:103150000F900FBE0F901F90189582E084BD93E0F2
:1031600095BD9AEF97BD80936E0008952FB7F894A0
:103170008091D1019091D201A091D301B091D4015D
:103180002FBF08952FB7F8946091D1017091D201AB
:103190008091D3019091D4012FBF0895CF92DF92F7
:1031A000EF92FF920F931F932FB7F8944091D101A4
:1031B0005091D2016091D3017091D4012FBF6A0167
:1031C0007B01EE24FF248C0120E030E0C016D10604
:1031D000E206F30610F4415051099A01281B390BFD
:1031E000C9011F910F91FF90EF90DF90CF9008954C
:1031F00078941F920F920FB60F9211248F939F9382
:10320000AF93BF938091D1019091D201A091D3014E
:10321000B091D4010196A11DB11D8093D10190936D
:10322000D201A093D301B093D401BF91AF919F91EC
:103230008F910F900FBE0F901F90189581E0809393
:10324000E00080E28093D8001092C9008FE19EE4F4
:103250000197F1F700C0000087E090EBDC0180935C
:10326000E4019093E501A093E601B093E7019CE0AF
:1032700088E10FB6F894A895809360000FBE9093F4
:103280006000FFCF0E946A17811102C00E94F017F0
:103290000E9475178093C0010E947D1790E0909363
:1032A000D6018093D5010E947917682F70E080E0E5
:1032B00090E00C94AB14CF93C82F1F928F9384ECA3
:1032C00092E09F938F930E948B0581E090E0A0E0B5
:1032D000B0E0BC01CD0104C0660F771F881F991FA5
:1032E000CA95D2F70E94AB140F900F900F900F90D9
:1032F000CF910C94D010CF938B3109F4D1C108F049
:1033000067C18B3009F48AC108F03DC1863009F4E9
:1033100088C120F4853009F496C144C2873009F48D
:10332000A4C1883009F03EC28CEC97E00E94F20400
:103330008DE197E00E94F2040E9479171F928F930B
:103340008AE197E09F938F930E948B0588E197E035
:103350000E94F2040E947517C82F85E097E00E9432
:10336000F2041F92CF9380E097E09F938F930E9487
:103370008B058EEF96E00E94F20484EF96E00E94A7
:10338000F2048C2F81701F928F9381EF96E09F93B0
:103390008F930E948B058FEE96E00E94F20485EEDB
:1033A00096E00E94F204C1FB882780F91F928F9358
:1033B00082EE96E09F938F930E948B0580EE96E0BD
:1033C0000E94F20484ED96E00E94F204C2FB88277A
:1033D00080F91F928F9381ED96E09F938F930E94C7
:1033E0008B058FEC96E00E94F20486EC96E00E943A
:1033F000F204C3FBCC27C0F91F92CF9383EC96E075
:103400009F938F930E948B0581EC96E00E94F204BB
:103410000E947D17C82F8DEA96E00E94F2041F9249
:10342000CF9388EA96E09F938F930E948B0586EA5C
:1034300096E00E94F2048DE896E00E94F2048C2F40
:1034400081701F928F938AE896E09F938F930E94DA
:103450008B058DB79EB780960FB6F8949EBF0FBEB2
:103460008DBF88E896E00E94F20481E796E00E9412
:10347000F204C1FB882780F91F928F938EE696E0B5
:103480009F938F930E948B058CE696E00E94F20436
:103490008AE596E00E94F204C2FB882780F91F9219
:1034A0008F9387E596E09F938F930E948B0585E528
:1034B00096E00E94F20483E496E00E94F204C3FBCB
:1034C000882780F91F928F9380E496E09F938F93D3
:1034D0000E948B058EE396E00E94F20484E396E05E
:1034E0000E94F204C4FB882780F91F928F9381E326
:1034F00096E09F938F930E948B058FE296E00E9447
:10350000F2048DE196E00E94F204C5FB882780F961
:103510001F928F938AE196E09F938F930E948B0571
:1035200088E196E00E94F2048CEF95E00E94F2049C
:10353000C6FB882780F91F928F9389EF95E09F93B0
:103540008F930E948B0587EF95E00E94F2048FEE27
:1035500095E00E94F204C7FBCC27C0F91F92CF93DD
:103560008CEE95E09F938F930E948B058AEE95E0F9
:103570000E94F2048DB79EB74C960FB6F8949EBF8A
:103580000FBE8DBF49C0803109F4B4C020F48E3025
:1035900009F49AC007C1863109F4C7C0893109F01E
:1035A00001C18DE194E00E94F20480E094E00E9469
:1035B000F20486EC93E00E94F2048DE893E00E940E
:1035C000F20480E693E00E94F20482E393E08FC06D
:1035D0008A32E1F060F4873209F4E0C028F48E31D9
:1035E00008F4E0C08D51DBC0893269F1DBC083345F
:1035F00048F48A3308F0D0C0853309F4CFC088334B
:1036000069F0D0C0833409F4C9C0CCC08BEB97E01B
:103610000E94F2040E94F017C1E0C9C087E494E060
:1036200066C08091C001817F8E7F8093C0018CE253
:1036300094E00E94F20487EB97E00E94F20481E09C
:103640008093C201E9CF0E94D0108BE997E00E94DD
:10365000F2049FEF23ED80E3915020408040E1F79A
:1036600000C000000E941E19D7CF8091C001C82F52
:10367000C095C170C0FB80F98093C001CC2329F0B4
:103680008FE897E00E94F20492C082E897E00E94DF
:10369000F2048091C001897F877F8093C001BCCFF5
:1036A0009091C00191FBCC27C0F981E0C827892FF8
:1036B000C0FB81F98093C001CC2319F085E797E026
:1036C00029C087E697E013C09091C00192FBCC27F8
:1036D000C0F981E0C827892FC0FB82F98093C0011F
:1036E000CC2319F088E597E015C088E497E00E94A4
:1036F000F20492CF9091C00193FBCC27C0F981E0F6
:10370000C827892FC0FB83F98093C001CC2351F0D7
:103710008CE397E00E94F2048091C0018160809365
:10372000C00145C08FE297E0E2CF84E293E00E94BF
:10373000F2040E94940B1F928F938AE093E09F9370
:103740008F930E948B0580910C011F928F9383EFC2
:1037500092E09F938F930E948B058091CF011F92DF
:103760008F9380EE92E09F938F930E948B050E942F
:10377000C2189F938F937F936F9389EC92E09F93EE
:103780008F930E948B058DB79EB742960FB6F89423
:103790009EBF0FBE8DBF40CF895301C080E00E9405
:1037A0005B193ACF8DE297E00E94F204C0E08C2FC3
:1037B000CF91089580E0089580E00895CF93C82FB9
:1037C0008091C201882319F0813031F038C00E9405
:1037D00085168232B1F504C00E948516823261F4EA
:1037E0008C2F0E94DA1B811104C08C2F0E947B1940
:1037F00024C081E090E021C08C2F0E94DC1B81114D
:103800001BC0C43189F018F4CB3029F010C0C93284
:1038100059F0C83361F48CE294E00E94F20480EC29
:1038200092E00E94F20408C01092C2010CC08EEB1C
:1038300092E00E94F20407C081E0817006C01092FD
:10384000C20180E002C080E0F8CFCF91089580915E
:10385000CE01089508959FB7F8941092C5019FBFB7
:103860009091DB01943009F057C09091E9009F706E
:103870003091EC00232F217030FD20E8922B23E0C3
:103880002093E9002091EB0020FF43C02091EE003F
:1038900027FF3FC02091C301222321F02091E8009F
:1038A00025FF37C01092C30126E03091E80035FDB6
:1038B00015C03091DB01343061F53091EB0035FDFE
:1038C00028C0215021F481E08093C30122C0EFE998
:1038D000FFE03197F1F700C00000E7CF8093F100DF
:1038E0008091E80085FD0AC08091E80080FFFCCF50
:1038F0008091E8008E778093E80006C08FB7F89437
:1039000021E02093C5018FBF9F709093E90080E074
:1039100008959F709093E9008FEF08950F931F9380
:10392000CF93DF9300D01F92CDB7DEB78C010E94FA
:103930001E1F823011F0843021F584E089831B83BF
:103940000A8382E08093E9008FEF9091E800815034
:1039500095FD06C095ED9A95F1F700008111F5CF20
:103960008091E80085FF0DC040E050E063E070E02A
:10397000CE0101960E943B1F8091E8008E778093D4
:10398000E8000F900F900F90DF91CF911F910F9152
:103990000895CF93DF9300D01F92CDB7DEB720916B
:1039A000DB01243031F523E02983805891099B8382
:1039B0008A8382E08093E9008FEF9091E800815044
:1039C00095FD06C095ED9A95F1F700008111F5CFB0
:1039D0008091E80085FF0DC040E050E063E070E0BA
:1039E000CE0101960E943B1F8091E8008E77809364
:1039F000E8000F900F900F90DF91CF910895CF9333
:103A0000DF93EC010E941E1F823011F0843039F5E3
:103A100081E08093E9008FEF9091E800815095FD5F
:103A200006C095ED9A95F1F700008111F5CF8091D0
:103A3000E80085FF14C040E050E068E070E0CE018F
:103A40000E943B1F8091E8008E778093E80088E019
:103A5000FE01A6ECB1E001900D928A95E1F7DF91AD
:103A6000CF9108958CEF97E00E94F2048091DA01E3
:103A7000811109C00E94D0200E942D218091E20076
:103A800084608093E200089588EF97E00E94F2043A
:103A90001092DA01089584EF97E00C94F20480EF1D
:103AA00097E00C94F2048CEE97E00E94F2040C94E0
:103AB0007C182091C4012F5F822F62E30E94D623DD
:103AC000992319F02093C40108951092C4018091A4
:103AD000C501882371F18091DB01843041F580912B
:103AE000E9008F702091EC00922F917020FD90E8FA
:103AF000892B93E09093E9009091EB0090FF14C024
:103B00009091EE0097FF10C09091E80095FF03C0E0
:103B10001092F100F9CF9091E80090FF05C09091CC
:103B2000E8009E779093E8008F708093E9001092F0
:103B3000C501089542E061EC81E00E944A2042E222
:103B400061EC82E00E944A2042E261EC83E00C9446
:103B50004A208091DD01833009F460C030F4813067
:103B600071F0823009F499C008958A3009F485C053
:103B70008B3009F46BC0893009F0A7C020C0809158
:103B8000DC01813A09F0A1C08091E800877F809331
:103B9000E8008091E0019091E101892B21F468E037
:103BA00086EC91E003C060E080E090E070E00E946D
:103BB000861F8091E8008B778093E80008958091BC
:103BC000DC01813209F081C08091E0019091E10136
:103BD000029708F07AC08091E800877F8093E80020
:103BE0008091E80082FD05C08091DB018111F8CF52
:103BF0006CC02091F3008091F20090E0922B02972C
:103C000029F48091F1008B7F813021F48091F100C3
:103C10008093CE018091E8008B7753C08091DC01C6
:103C2000813A09F052C08091E0019091E101892B25
:103C300009F04BC08091E800877F8093E800809175
:103C4000E80080FFFCCF80910C0136C08091DC0140
:103C50008132D9F58091E0019091E101892BA9F59C
:103C60008091E800877F8093E8000E947F20809108
:103C7000DE0180930C010C94D0108091DC01813224
:103C800021F58091E800877F8093E8000E947F20E3
:103C90008091DF018093CF0108958091DC01813A0A
:103CA000A1F48091E800877F8093E8008091E8008C
:103CB00080FFFCCF8091CF018093F1008091E800DC
:103CC0008E778093E8000C947F20089584B7877FD7
:103CD00084BF0FB6F894A8958091600088618093A6
:103CE0006000109260000FBE80E880936100109227
:103CF00061000E94230C0E94D0200E942D218091FF
:103D0000E20084608093E2008BE29CE10E94351720
:103D100078940E94BB230E942B0C82E091E00E94C9
:103D20008F0B8BED97E00E94F2048091DB018530D0
:103D300089F487ED97E00E94F2040E943218809186
:103D4000D901882391F30E946418882371F30E949B
:103D5000251FEBCF0E945B0CE8CF0C94AF1E292FE0
:103D6000332723303105C9F064F42130310581F067
:103D70002230310509F049C08BE590E024E338E0BA
:103D800048C02132310521F12232310571F13DC0A7
:103D900082E190E02FE838E03CC09927813091051E
:103DA00071F02CF4892B89F5E0E3F8E00DC0823046
:103DB000910541F0039749F5E0E0F8E005C0E2E144
:103DC000F8E002C0E6E0F8E0849190E09F0121C0B5
:103DD00063307105D0F4660F771FFB01EA5DFE4F7B
:103DE0002081318189E090E014C06330710568F46E
:103DF000FB01EE0FFF1FE05EFE4F20813181FB01D2
:103E0000E35EFE4F808190E004C080E090E020E01F
:103E100030E0FA013183208308950895CF93C82FAD
:103E20000E940D1FC093D001CF9108958091DB01B6
:103E3000843011F081E0089582E008958091D001EE
:103E4000811102C00C94161F089580E189BD82E1A2
:103E500089BD09B400FEFDCF8091D8008F7D80938D
:103E6000D8008091E00082608093E0008091E000C3
:103E700081FDFCCF0895CF92DF92EF92FF920F93D6
:103E80001F93CF93DF93EC018B016A010E949E2068
:103E9000811133C0C114D10439F0F60180819181C0
:103EA000081B190BC80FD91FE12CF12C01151105A6
:103EB00019F18091E80085FD16C08091E8008E77A9
:103EC0008093E800C114D10449F0F601808191810A
:103ED000E80EF91EF182E08285E00FC00E949E206C
:103EE000882321F30AC089918093F10001501109C0
:103EF000FFEFEF1AFF0ADACF80E0DF91CF911F9139
:103F00000F91FF90EF90DF90CF9008952091E20104
:103F10003091E3012617370748F06115710539F430
:103F20002091E8002E772093E80001C0B90140E01D
:103F300061157105A9F12091DB01222309F443C029
:103F4000253009F442C02091E80023FD40C02091B3
:103F5000E80022FD32C02091E80020FFE9CF409127
:103F6000F3002091F20030E0342BFC01CF01611509
:103F7000710559F02830310540F481918093F100AA
:103F8000615071092F5F3F4FF1CF41E0283031057B
:103F900009F040E02091E8002E772093E800C8CF98
:103FA0004111C9CF0AC08091DB01882361F08530BF
:103FB00061F08091E80083FD0AC08091E80082FFF3
:103FC000F2CF80E0089582E0089583E0089581E0D3
:103FD00008952091E2013091E3012617370748F058
:103FE0006115710539F42091E8002E772093E800DF
:103FF00001C0B901FC0120E06115710591F18091CA
:10400000DB01882309F440C0853009F43FC080916A
:10401000E80083FD3DC08091E80082FD2FC08091C3
:10402000E80080FFE9CF2091F3008091F20090E05A
:10403000922B6115710559F08830910540F4249157
:104040002093F1003196615071090196F2CF21E081
:10405000089709F020E08091E8008E778093E800CF
:10406000CBCF2111CCCF0AC08091DB01882361F036
:10407000853061F08091E80083FD0AC08091E800FE
:1040800082FFF2CF80E0089582E0089583E00895F2
:1040900081E00895982F973058F59093E90098178C
:1040A00039F07091EC002091ED005091F00003C0C8
:1040B000242F762F50E021FF19C03091EB003E7F76
:1040C0003093EB003091ED003D7F3093ED00309167
:1040D000EB0031603093EB007093EC002093ED0027
:1040E0005093F0002091EE0027FF07C09F5FD3CFD1
:1040F0008F708093E90081E0089580E008958091B9
:10410000DC0187FF11C08091E80082FD05C080912D
:10411000DB018111F8CF11C08091E8008B770BC0D3
:104120008091DB01882349F08091E80080FFF8CF7F
:104130008091E8008E778093E80008952091E40054
:104140003091E50095E64091EC00842F817040FFAE
:1041500022C08091E80080FD1CC08091DB01882393
:1041600091F0853091F08091EB0085FD10C0409179
:10417000E4005091E5004217530729F39A0191504A
:1041800011F784E0089582E0089583E0089581E0C6
:10419000089580E008954091E80042FFDECF089541
:1041A0000E943E210E944621E0EEF0E08081816085
:1041B0008083E8EDF0E080818F77808319BCA7EDE4
:1041C000B0E08C918E7F8C9380818F7E8083109263
:1041D000DA0108950F931F93CF93DF930E943E213E
:1041E0000E944621C8EDD0E088818F77888388813E
:1041F0008068888388818F7D888319BC1092DB0159
:104200001092D7011092D9011092D80100EE10E05F
:10421000F80180818B7F808388818160888342E080
:1042200060E080E00E944A20E1EEF0E080818E7F35
:104230008083E2EEF0E0808181608083808188600D
:104240008083F80180818E7F80838881806188836C
:10425000DF91CF911F910F910895E8EDF0E08081FB
:104260008F7E8083E7EDF0E080818160808384E051
:1042700082BF81E08093DA010C94EA20E8EDF0E05F
:1042800080818E7F80831092E20008951092DA0080
:104290001092E10008951F920F920FB60F92112411
:1042A0002F933F934F935F936F937F938F939F933E
:1042B000AF93BF93EF93FF938091E10082FF0BC018
:1042C0008091E20082FF07C08091E1008B7F8093A4
:1042D000E1000E94591D8091DA0080FF1FC080918B
:1042E000D80080FF1BC08091DA008E7F8093DA00B7
:1042F0008091D90080FF0DC080E189BD82E189BD38
:1043000009B400FEFDCF81E08093DB010E94321DE5
:1043100005C019BC1092DB010E94441D8091E10090
:1043200080FF19C08091E20080FF15C08091E200FB
:104330008E7F8093E2008091E20080618093E200B2
:104340008091D80080628093D80019BC85E080936A
:10435000DB010E944F1D8091E10084FF30C08091FD
:10436000E20084FF2CC080E189BD82E189BD09B4EF
:1043700000FEFDCF8091D8008F7D8093D800809182
:10438000E1008F7E8093E1008091E2008F7E809338
:10439000E2008091E20081608093E2008091D70189
:1043A000882311F084E007C08091E30087FD02C0FC
:1043B00081E001C083E08093DB010E94531D809166
:1043C000E10083FF29C08091E20083FF25C0809136
:1043D000E100877F8093E10082E08093DB0110920F
:1043E000D7018091E1008E7F8093E1008091E2000F
:1043F0008E7F8093E2008091E20080618093E200F2
:1044000042E060E080E00E944A208091F0008860F5
:104410008093F0000E944B1DFF91EF91BF91AF91EF
:104420009F918F917F916F915F914F913F912F91CC
:104430000F900FBE0F901F9018951F920F920FB6FE
:104440000F9211242F933F934F935F936F937F931A
:104450008F939F93AF93BF93CF93DF93EF93FF938C
:10446000C091E900CF708091EC00D82FD17080FD11
:10447000D0E81092E9008091F000877F8093F000EF
:1044800078940E9461221092E9008091F000886087
:104490008093F000CD2BCF70C093E900FF91EF9196
:1044A000DF91CF91BF91AF919F918F917F916F914C
:1044B0005F914F913F912F910F900FBE0F901F90E2
:1044C00018951F93CF93DF93CDB7DEB7AA970FB69A
:1044D000F894DEBF0FBECDBFECEDF1E088E08E0FAB
:1044E0009091F10091938E13FBCF0E94A91D8091B2
:1044F000E80083FF28C18091DC019091DD01492F04
:1045000050E04A30510508F01EC1FA01EA57FF4F4A
:104510000C94E223803821F0823809F014C108C0DD
:104520008091D8019091D901992389F082600FC0C0
:104530008091E0018F70873008F005C18093E90019
:104540008091EB0085FB882780F91092E90090911B
:10455000E800977F9093E8008093F1001092F100BB
:10456000D0C0282F2D7F09F0EEC0882319F08230AB
:1045700061F0E9C08091DE01813009F0E4C0933040
:1045800009F080E08093D9012EC08091DE01811175
:104590002AC08091E0018F702FEF280F263008F09D
:1045A000D2C08093E9002091EB0020FF1CC0933023
:1045B00021F48091EB00806214C09091EB00906137
:1045C0009093EB0021E030E0A90102C0440F551F99
:1045D0008A95E2F74093EA001092EA008091EB009E
:1045E00088608093EB001092E9008091E800877F5B
:1045F0008093E8000E947F20A6C08111A4C0109182
:10460000DE011F778091E3008078812B8093E300A7
:104610008091E800877F8093E8000E947F2080914E
:10462000E80080FFFCCF8091E30080688093E30086
:10463000111102C082E001C083E08093DB0183C0DE
:104640008058823008F07FC08091DE019091DF01B8
:104650008C3D53E0950779F583E08A838AE289836C
:104660004FB7F894DE01139620E03EE051E2E32FCD
:10467000F0E050935700E49120FF03C0E295EF7003
:104680003F5FEF708E2F90E0EA3010F0C79601C0C8
:10469000C0968D939D932F5F243149F74FBF809132
:1046A000E800877F8093E8006AE270E0CE0101961F
:1046B0000E94861F15C06091E0017091E101AE017A
:1046C0004F5F5F4F0E94AD1EBC01892BE1F19091BD
:1046D000E800977F9093E80089819A810E94E91F02
:1046E0008091E8008B778093E8002DC0803859F5E1
:1046F0008091E800877F8093E8008091D7018093C4
:10470000F1008091E8008E7773CF81111CC09091E9
:10471000DE019230C0F48091E800877F8093E8004A
:104720009093D7010E947F208091D701811106C00C
:104730008091E30087FD02C081E001C084E08093A6
:10474000DB010E949A1D8091E80083FF0AC08091DE
:10475000E800877F8093E8008091EB00806280937F
:10476000EB00AA960FB6F894DEBF0FBECDBFDF9167
:10477000CF911F910895CF938091DB018823A1F001
:10478000C091E900CF709091EC00892F817090FD6D
:1047900080E8C82B1092E9008091E80083FD0E9418
:1047A0006122CF70C093E900CF910895991B79E001
:1047B00004C0991F961708F0961B881F7A95C9F7B1
:1047C00080950895EE0FFF1F0590F491E02D099458
:1047D000F999FECF92BD81BDF89A992780B50895C9
:1047E000A8E1B0E042E050E00C941C24262FF99997
:1047F000FECF92BD81BDF89A019700B4021639F040
:104800001FBA20BD0FB6F894FA9AF99A0FBE089510
:104810000396272F0E94F7230E94F623252F0E943C
:10482000F723242F0C94F7230196272F0E94F723B8
:104830000C94F623DC01CB01FC01F999FECF06C0F4
:10484000F2BDE1BDF89A319600B40D92415050404E
:08485000B8F70895F894FFCFBA
:10485800B501271CFF1C2A1CC91C8E1C01F6F5F487
:10486800F1F09293959496973467663635403622E0
:0C487800F908C308A10846085F0878088A
:00000001FF
